{
    "_format": "hh-sol-artifact-1",
    "contractName": "MyEpicGame",
    "sourceName": "contracts/MyEpicGame.sol",
    "abi": [
        {
            "inputs": [
                {
                    "internalType": "string[]",
                    "name": "characterNames",
                    "type": "string[]"
                },
                {
                    "internalType": "string[]",
                    "name": "characterImageURIs",
                    "type": "string[]"
                },
                {
                    "internalType": "uint256[]",
                    "name": "characterHp",
                    "type": "uint256[]"
                },
                {
                    "internalType": "uint256[]",
                    "name": "characterAttackDmg",
                    "type": "uint256[]"
                },
                {
                    "internalType": "string",
                    "name": "bossName",
                    "type": "string"
                },
                {
                    "internalType": "string",
                    "name": "bossImageURI",
                    "type": "string"
                },
                {
                    "internalType": "uint256",
                    "name": "bossHp",
                    "type": "uint256"
                },
                {
                    "internalType": "uint256",
                    "name": "bossAttackDamage",
                    "type": "uint256"
                }
            ],
            "stateMutability": "nonpayable",
            "type": "constructor"
        },
        {
            "anonymous": false,
            "inputs": [
                {
                    "indexed": true,
                    "internalType": "address",
                    "name": "owner",
                    "type": "address"
                },
                {
                    "indexed": true,
                    "internalType": "address",
                    "name": "approved",
                    "type": "address"
                },
                {
                    "indexed": true,
                    "internalType": "uint256",
                    "name": "tokenId",
                    "type": "uint256"
                }
            ],
            "name": "Approval",
            "type": "event"
        },
        {
            "anonymous": false,
            "inputs": [
                {
                    "indexed": true,
                    "internalType": "address",
                    "name": "owner",
                    "type": "address"
                },
                {
                    "indexed": true,
                    "internalType": "address",
                    "name": "operator",
                    "type": "address"
                },
                {
                    "indexed": false,
                    "internalType": "bool",
                    "name": "approved",
                    "type": "bool"
                }
            ],
            "name": "ApprovalForAll",
            "type": "event"
        },
        {
            "anonymous": false,
            "inputs": [
                {
                    "indexed": false,
                    "internalType": "uint256",
                    "name": "newBossHp",
                    "type": "uint256"
                },
                {
                    "indexed": false,
                    "internalType": "uint256",
                    "name": "newPlayerHp",
                    "type": "uint256"
                }
            ],
            "name": "AttackComplete",
            "type": "event"
        },
        {
            "anonymous": false,
            "inputs": [
                {
                    "indexed": false,
                    "internalType": "address",
                    "name": "sender",
                    "type": "address"
                },
                {
                    "indexed": false,
                    "internalType": "uint256",
                    "name": "tokenId",
                    "type": "uint256"
                },
                {
                    "indexed": false,
                    "internalType": "uint256",
                    "name": "characterIndex",
                    "type": "uint256"
                }
            ],
            "name": "CharacterNFTMinted",
            "type": "event"
        },
        {
            "anonymous": false,
            "inputs": [
                {
                    "indexed": true,
                    "internalType": "address",
                    "name": "from",
                    "type": "address"
                },
                {
                    "indexed": true,
                    "internalType": "address",
                    "name": "to",
                    "type": "address"
                },
                {
                    "indexed": true,
                    "internalType": "uint256",
                    "name": "tokenId",
                    "type": "uint256"
                }
            ],
            "name": "Transfer",
            "type": "event"
        },
        {
            "inputs": [
                {
                    "internalType": "address",
                    "name": "to",
                    "type": "address"
                },
                {
                    "internalType": "uint256",
                    "name": "tokenId",
                    "type": "uint256"
                }
            ],
            "name": "approve",
            "outputs": [],
            "stateMutability": "nonpayable",
            "type": "function"
        },
        {
            "inputs": [],
            "name": "attackBoss",
            "outputs": [],
            "stateMutability": "nonpayable",
            "type": "function"
        },
        {
            "inputs": [
                {
                    "internalType": "address",
                    "name": "owner",
                    "type": "address"
                }
            ],
            "name": "balanceOf",
            "outputs": [
                {
                    "internalType": "uint256",
                    "name": "",
                    "type": "uint256"
                }
            ],
            "stateMutability": "view",
            "type": "function"
        },
        {
            "inputs": [],
            "name": "bigBoss",
            "outputs": [
                {
                    "internalType": "string",
                    "name": "name",
                    "type": "string"
                },
                {
                    "internalType": "string",
                    "name": "imageURI",
                    "type": "string"
                },
                {
                    "internalType": "uint256",
                    "name": "hp",
                    "type": "uint256"
                },
                {
                    "internalType": "uint256",
                    "name": "maxHp",
                    "type": "uint256"
                },
                {
                    "internalType": "uint256",
                    "name": "attackDamage",
                    "type": "uint256"
                }
            ],
            "stateMutability": "view",
            "type": "function"
        },
        {
            "inputs": [],
            "name": "checkIfUserHasNFT",
            "outputs": [
                {
                    "components": [
                        {
                            "internalType": "uint256",
                            "name": "characterIndex",
                            "type": "uint256"
                        },
                        {
                            "internalType": "string",
                            "name": "name",
                            "type": "string"
                        },
                        {
                            "internalType": "string",
                            "name": "imageURI",
                            "type": "string"
                        },
                        {
                            "internalType": "uint256",
                            "name": "hp",
                            "type": "uint256"
                        },
                        {
                            "internalType": "uint256",
                            "name": "maxHp",
                            "type": "uint256"
                        },
                        {
                            "internalType": "uint256",
                            "name": "attackDamage",
                            "type": "uint256"
                        }
                    ],
                    "internalType": "struct MyEpicGame.CharacterAttributes",
                    "name": "",
                    "type": "tuple"
                }
            ],
            "stateMutability": "view",
            "type": "function"
        },
        {
            "inputs": [],
            "name": "getAllDefaultCharacters",
            "outputs": [
                {
                    "components": [
                        {
                            "internalType": "uint256",
                            "name": "characterIndex",
                            "type": "uint256"
                        },
                        {
                            "internalType": "string",
                            "name": "name",
                            "type": "string"
                        },
                        {
                            "internalType": "string",
                            "name": "imageURI",
                            "type": "string"
                        },
                        {
                            "internalType": "uint256",
                            "name": "hp",
                            "type": "uint256"
                        },
                        {
                            "internalType": "uint256",
                            "name": "maxHp",
                            "type": "uint256"
                        },
                        {
                            "internalType": "uint256",
                            "name": "attackDamage",
                            "type": "uint256"
                        }
                    ],
                    "internalType": "struct MyEpicGame.CharacterAttributes[]",
                    "name": "",
                    "type": "tuple[]"
                }
            ],
            "stateMutability": "view",
            "type": "function"
        },
        {
            "inputs": [
                {
                    "internalType": "uint256",
                    "name": "tokenId",
                    "type": "uint256"
                }
            ],
            "name": "getApproved",
            "outputs": [
                {
                    "internalType": "address",
                    "name": "",
                    "type": "address"
                }
            ],
            "stateMutability": "view",
            "type": "function"
        },
        {
            "inputs": [],
            "name": "getBigBoss",
            "outputs": [
                {
                    "components": [
                        {
                            "internalType": "string",
                            "name": "name",
                            "type": "string"
                        },
                        {
                            "internalType": "string",
                            "name": "imageURI",
                            "type": "string"
                        },
                        {
                            "internalType": "uint256",
                            "name": "hp",
                            "type": "uint256"
                        },
                        {
                            "internalType": "uint256",
                            "name": "maxHp",
                            "type": "uint256"
                        },
                        {
                            "internalType": "uint256",
                            "name": "attackDamage",
                            "type": "uint256"
                        }
                    ],
                    "internalType": "struct MyEpicGame.BigBoss",
                    "name": "",
                    "type": "tuple"
                }
            ],
            "stateMutability": "view",
            "type": "function"
        },
        {
            "inputs": [
                {
                    "internalType": "address",
                    "name": "owner",
                    "type": "address"
                },
                {
                    "internalType": "address",
                    "name": "operator",
                    "type": "address"
                }
            ],
            "name": "isApprovedForAll",
            "outputs": [
                {
                    "internalType": "bool",
                    "name": "",
                    "type": "bool"
                }
            ],
            "stateMutability": "view",
            "type": "function"
        },
        {
            "inputs": [
                {
                    "internalType": "uint256",
                    "name": "_characterIndex",
                    "type": "uint256"
                }
            ],
            "name": "mintCharacterNFT",
            "outputs": [],
            "stateMutability": "nonpayable",
            "type": "function"
        },
        {
            "inputs": [],
            "name": "name",
            "outputs": [
                {
                    "internalType": "string",
                    "name": "",
                    "type": "string"
                }
            ],
            "stateMutability": "view",
            "type": "function"
        },
        {
            "inputs": [
                {
                    "internalType": "uint256",
                    "name": "",
                    "type": "uint256"
                }
            ],
            "name": "nftHolderAttributes",
            "outputs": [
                {
                    "internalType": "uint256",
                    "name": "characterIndex",
                    "type": "uint256"
                },
                {
                    "internalType": "string",
                    "name": "name",
                    "type": "string"
                },
                {
                    "internalType": "string",
                    "name": "imageURI",
                    "type": "string"
                },
                {
                    "internalType": "uint256",
                    "name": "hp",
                    "type": "uint256"
                },
                {
                    "internalType": "uint256",
                    "name": "maxHp",
                    "type": "uint256"
                },
                {
                    "internalType": "uint256",
                    "name": "attackDamage",
                    "type": "uint256"
                }
            ],
            "stateMutability": "view",
            "type": "function"
        },
        {
            "inputs": [
                {
                    "internalType": "address",
                    "name": "",
                    "type": "address"
                }
            ],
            "name": "nftHolders",
            "outputs": [
                {
                    "internalType": "uint256",
                    "name": "",
                    "type": "uint256"
                }
            ],
            "stateMutability": "view",
            "type": "function"
        },
        {
            "inputs": [
                {
                    "internalType": "uint256",
                    "name": "tokenId",
                    "type": "uint256"
                }
            ],
            "name": "ownerOf",
            "outputs": [
                {
                    "internalType": "address",
                    "name": "",
                    "type": "address"
                }
            ],
            "stateMutability": "view",
            "type": "function"
        },
        {
            "inputs": [
                {
                    "internalType": "address",
                    "name": "from",
                    "type": "address"
                },
                {
                    "internalType": "address",
                    "name": "to",
                    "type": "address"
                },
                {
                    "internalType": "uint256",
                    "name": "tokenId",
                    "type": "uint256"
                }
            ],
            "name": "safeTransferFrom",
            "outputs": [],
            "stateMutability": "nonpayable",
            "type": "function"
        },
        {
            "inputs": [
                {
                    "internalType": "address",
                    "name": "from",
                    "type": "address"
                },
                {
                    "internalType": "address",
                    "name": "to",
                    "type": "address"
                },
                {
                    "internalType": "uint256",
                    "name": "tokenId",
                    "type": "uint256"
                },
                {
                    "internalType": "bytes",
                    "name": "_data",
                    "type": "bytes"
                }
            ],
            "name": "safeTransferFrom",
            "outputs": [],
            "stateMutability": "nonpayable",
            "type": "function"
        },
        {
            "inputs": [
                {
                    "internalType": "address",
                    "name": "operator",
                    "type": "address"
                },
                {
                    "internalType": "bool",
                    "name": "approved",
                    "type": "bool"
                }
            ],
            "name": "setApprovalForAll",
            "outputs": [],
            "stateMutability": "nonpayable",
            "type": "function"
        },
        {
            "inputs": [
                {
                    "internalType": "bytes4",
                    "name": "interfaceId",
                    "type": "bytes4"
                }
            ],
            "name": "supportsInterface",
            "outputs": [
                {
                    "internalType": "bool",
                    "name": "",
                    "type": "bool"
                }
            ],
            "stateMutability": "view",
            "type": "function"
        },
        {
            "inputs": [],
            "name": "symbol",
            "outputs": [
                {
                    "internalType": "string",
                    "name": "",
                    "type": "string"
                }
            ],
            "stateMutability": "view",
            "type": "function"
        },
        {
            "inputs": [
                {
                    "internalType": "uint256",
                    "name": "_tokenId",
                    "type": "uint256"
                }
            ],
            "name": "tokenURI",
            "outputs": [
                {
                    "internalType": "string",
                    "name": "",
                    "type": "string"
                }
            ],
            "stateMutability": "view",
            "type": "function"
        },
        {
            "inputs": [
                {
                    "internalType": "address",
                    "name": "from",
                    "type": "address"
                },
                {
                    "internalType": "address",
                    "name": "to",
                    "type": "address"
                },
                {
                    "internalType": "uint256",
                    "name": "tokenId",
                    "type": "uint256"
                }
            ],
            "name": "transferFrom",
            "outputs": [],
            "stateMutability": "nonpayable",
            "type": "function"
        }
    ],
    "bytecode": "0x60806040523480156200001157600080fd5b506040516200566638038062005666833981810160405281019062000037919062000a5a565b6040518060400160405280600681526020017f4865726f657300000000000000000000000000000000000000000000000000008152506040518060400160405280600481526020017f4845524f000000000000000000000000000000000000000000000000000000008152508160009080519060200190620000bb929190620007ed565b508060019080519060200190620000d4929190620007ed565b5050506040518060a0016040528085815260200184815260200183815260200183815260200182815250600660008201518160000190805190602001906200011e929190620007ed565b5060208201518160010190805190602001906200013d929190620007ed565b50604082015181600201556060820151816003015560808201518160040155905050620002c06040518060600160405280602a81526020016200563c602a9139600660000180546200018f9062000de5565b80601f0160208091040260200160405190810160405280929190818152602001828054620001bd9062000de5565b80156200020e5780601f10620001e2576101008083540402835291602001916200020e565b820191906000526020600020905b815481529060010190602001808311620001f057829003601f168201915b5050505050600660020154600660010180546200022b9062000de5565b80601f0160208091040260200160405190810160405280929190818152602001828054620002599062000de5565b8015620002aa5780601f106200027e57610100808354040283529160200191620002aa565b820191906000526020600020905b8154815290600101906020018083116200028c57829003601f168201915b50505050506200070260201b62001cd71760201c565b60005b8851811015620006dc57600c6040518060c001604052808381526020018b84815181106200031a577f4e487b7100000000000000000000000000000000000000000000000000000000600052603260045260246000fd5b602002602001015181526020018a848151811062000361577f4e487b7100000000000000000000000000000000000000000000000000000000600052603260045260246000fd5b60200260200101518152602001898481518110620003a8577f4e487b7100000000000000000000000000000000000000000000000000000000600052603260045260246000fd5b60200260200101518152602001898481518110620003ef577f4e487b7100000000000000000000000000000000000000000000000000000000600052603260045260246000fd5b6020026020010151815260200188848151811062000436577f4e487b7100000000000000000000000000000000000000000000000000000000600052603260045260246000fd5b6020026020010151815250908060018154018082558091505060019003906000526020600020906006020160009091909190915060008201518160000155602082015181600101908051906020019062000492929190620007ed565b506040820151816002019080519060200190620004b1929190620007ed565b50606082015181600301556080820151816004015560a0820151816005015550506000600c82815481106200050f577f4e487b7100000000000000000000000000000000000000000000000000000000600052603260045260246000fd5b90600052602060002090600602016040518060c001604052908160008201548152602001600182018054620005449062000de5565b80601f0160208091040260200160405190810160405280929190818152602001828054620005729062000de5565b8015620005c35780601f106200059757610100808354040283529160200191620005c3565b820191906000526020600020905b815481529060010190602001808311620005a557829003601f168201915b50505050508152602001600282018054620005de9062000de5565b80601f01602080910402602001604051908101604052809291908181526020018280546200060c9062000de5565b80156200065d5780601f1062000631576101008083540402835291602001916200065d565b820191906000526020600020905b8154815290600101906020018083116200063f57829003601f168201915b5050505050815260200160038201548152602001600482015481526020016005820154815250509050620006c460405180606001604052806025815260200162005617602591398260200151836060015184604001516200070260201b62001cd71760201c565b50600181620006d4919062000d48565b9050620002c3565b50620006f4600b620007ae60201b62001d791760201c565b505050505050505062000ed3565b620007a8848484846040516024016200071f949392919062000c05565b6040516020818303038152906040527f8d142cdd000000000000000000000000000000000000000000000000000000007bffffffffffffffffffffffffffffffffffffffffffffffffffffffff19166020820180517bffffffffffffffffffffffffffffffffffffffffffffffffffffffff8381831617835250505050620007c460201b60201c565b50505050565b6001816000016000828254019250508190555050565b60008151905060006a636f6e736f6c652e6c6f679050602083016000808483855afa5050505050565b828054620007fb9062000de5565b90600052602060002090601f0160209004810192826200081f57600085556200086b565b82601f106200083a57805160ff19168380011785556200086b565b828001600101855582156200086b579182015b828111156200086a5782518255916020019190600101906200084d565b5b5090506200087a91906200087e565b5090565b5b80821115620008995760008160009055506001016200087f565b5090565b6000620008b4620008ae8462000c9b565b62000c67565b9050808382526020820190508260005b85811015620008f85781518501620008dd888262000a16565b845260208401935060208301925050600181019050620008c4565b5050509392505050565b600062000919620009138462000cca565b62000c67565b905080838252602082019050828560208602820111156200093957600080fd5b60005b858110156200096d578162000952888262000a43565b8452602084019350602083019250506001810190506200093c565b5050509392505050565b60006200098e620009888462000cf9565b62000c67565b905082815260208101848484011115620009a757600080fd5b620009b484828562000daf565b509392505050565b600082601f830112620009ce57600080fd5b8151620009e08482602086016200089d565b91505092915050565b600082601f830112620009fb57600080fd5b815162000a0d84826020860162000902565b91505092915050565b600082601f83011262000a2857600080fd5b815162000a3a84826020860162000977565b91505092915050565b60008151905062000a548162000eb9565b92915050565b600080600080600080600080610100898b03121562000a7857600080fd5b600089015167ffffffffffffffff81111562000a9357600080fd5b62000aa18b828c01620009bc565b985050602089015167ffffffffffffffff81111562000abf57600080fd5b62000acd8b828c01620009bc565b975050604089015167ffffffffffffffff81111562000aeb57600080fd5b62000af98b828c01620009e9565b965050606089015167ffffffffffffffff81111562000b1757600080fd5b62000b258b828c01620009e9565b955050608089015167ffffffffffffffff81111562000b4357600080fd5b62000b518b828c0162000a16565b94505060a089015167ffffffffffffffff81111562000b6f57600080fd5b62000b7d8b828c0162000a16565b93505060c062000b908b828c0162000a43565b92505060e062000ba38b828c0162000a43565b9150509295985092959890939650565b600062000bc08262000d2c565b62000bcc818562000d37565b935062000bde81856020860162000daf565b62000be98162000ea8565b840191505092915050565b62000bff8162000da5565b82525050565b6000608082019050818103600083015262000c21818762000bb3565b9050818103602083015262000c37818662000bb3565b905062000c48604083018562000bf4565b818103606083015262000c5c818462000bb3565b905095945050505050565b6000604051905081810181811067ffffffffffffffff8211171562000c915762000c9062000e79565b5b8060405250919050565b600067ffffffffffffffff82111562000cb95762000cb862000e79565b5b602082029050602081019050919050565b600067ffffffffffffffff82111562000ce85762000ce762000e79565b5b602082029050602081019050919050565b600067ffffffffffffffff82111562000d175762000d1662000e79565b5b601f19601f8301169050602081019050919050565b600081519050919050565b600082825260208201905092915050565b600062000d558262000da5565b915062000d628362000da5565b9250827fffffffffffffffffffffffffffffffffffffffffffffffffffffffffffffffff0382111562000d9a5762000d9962000e1b565b5b828201905092915050565b6000819050919050565b60005b8381101562000dcf57808201518184015260208101905062000db2565b8381111562000ddf576000848401525b50505050565b6000600282049050600182168062000dfe57607f821691505b6020821081141562000e155762000e1462000e4a565b5b50919050565b7f4e487b7100000000000000000000000000000000000000000000000000000000600052601160045260246000fd5b7f4e487b7100000000000000000000000000000000000000000000000000000000600052602260045260246000fd5b7f4e487b7100000000000000000000000000000000000000000000000000000000600052604160045260246000fd5b6000601f19601f8301169050919050565b62000ec48162000da5565b811462000ed057600080fd5b50565b6147348062000ee36000396000f3fe608060405234801561001057600080fd5b50600436106101375760003560e01c806395d89b41116100b8578063b953084e1161007c578063b953084e14610369578063c87b56dd14610387578063c8cf27f4146103b7578063d4f24c5b146103d5578063e985e9c5146103df578063f8b81ef71461040f57610137565b806395d89b41146102bc57806398da4c95146102da578063a22cb4651461030f578063a9c326791461032b578063b88d4fde1461034d57610137565b806323b872dd116100ff57806323b872dd146101f457806342842e0e146102105780636352211e1461022c57806370a082311461025c5780637df124a11461028c57610137565b806301ffc9a71461013c5780630665f9611461016c57806306fdde031461018a578063081812fc146101a8578063095ea7b3146101d8575b600080fd5b61015660048036038101906101519190612fb1565b61042b565b6040516101639190613d37565b60405180910390f35b61017461050d565b60405161018191906140d0565b60405180910390f35b610192610669565b60405161019f9190613d52565b60405180910390f35b6101c260048036038101906101bd9190613003565b6106fb565b6040516101cf9190613c77565b60405180910390f35b6101f260048036038101906101ed9190612f75565b610780565b005b61020e60048036038101906102099190612e6f565b610898565b005b61022a60048036038101906102259190612e6f565b6108f8565b005b61024660048036038101906102419190613003565b610918565b6040516102539190613c77565b60405180910390f35b61027660048036038101906102719190612e0a565b6109ca565b6040516102839190614114565b60405180910390f35b6102a660048036038101906102a19190612e0a565b610a82565b6040516102b39190614114565b60405180910390f35b6102c4610a9a565b6040516102d19190613d52565b60405180910390f35b6102f460048036038101906102ef9190613003565b610b2c565b6040516103069695949392919061412f565b60405180910390f35b61032960048036038101906103249190612f39565b610c78565b005b610333610df9565b604051610344959493929190613e21565b60405180910390f35b61036760048036038101906103629190612ebe565b610f2d565b005b610371610f8f565b60405161037e9190613d15565b60405180910390f35b6103a1600480360381019061039c9190613003565b61113a565b6040516103ae9190613d52565b60405180910390f35b6103bf611355565b6040516103cc91906140f2565b60405180910390f35b6103dd61152d565b005b6103f960048036038101906103f49190612e33565b61184f565b6040516104069190613d37565b60405180910390f35b61042960048036038101906104249190613003565b6118e3565b005b60007f80ac58cd000000000000000000000000000000000000000000000000000000007bffffffffffffffffffffffffffffffffffffffffffffffffffffffff1916827bffffffffffffffffffffffffffffffffffffffffffffffffffffffff191614806104f657507f5b5e139f000000000000000000000000000000000000000000000000000000007bffffffffffffffffffffffffffffffffffffffffffffffffffffffff1916827bffffffffffffffffffffffffffffffffffffffffffffffffffffffff1916145b80610506575061050582611d8f565b5b9050919050565b610515612c31565b60066040518060a001604052908160008201805461053290614457565b80601f016020809104026020016040519081016040528092919081815260200182805461055e90614457565b80156105ab5780601f10610580576101008083540402835291602001916105ab565b820191906000526020600020905b81548152906001019060200180831161058e57829003601f168201915b505050505081526020016001820180546105c490614457565b80601f01602080910402602001604051908101604052809291908181526020018280546105f090614457565b801561063d5780601f106106125761010080835404028352916020019161063d565b820191906000526020600020905b81548152906001019060200180831161062057829003601f168201915b505050505081526020016002820154815260200160038201548152602001600482015481525050905090565b60606000805461067890614457565b80601f01602080910402602001604051908101604052809291908181526020018280546106a490614457565b80156106f15780601f106106c6576101008083540402835291602001916106f1565b820191906000526020600020905b8154815290600101906020018083116106d457829003601f168201915b5050505050905090565b600061070682611df9565b610745576040517f08c379a000000000000000000000000000000000000000000000000000000000815260040161073c90614050565b60405180910390fd5b6004600083815260200190815260200160002060009054906101000a900473ffffffffffffffffffffffffffffffffffffffff169050919050565b600061078b82610918565b90508073ffffffffffffffffffffffffffffffffffffffff168373ffffffffffffffffffffffffffffffffffffffff1614156107fc576040517f08c379a00000000000000000000000000000000000000000000000000000000081526004016107f390614090565b60405180910390fd5b8073ffffffffffffffffffffffffffffffffffffffff1661081b611e65565b73ffffffffffffffffffffffffffffffffffffffff16148061084a575061084981610844611e65565b61184f565b5b610889576040517f08c379a000000000000000000000000000000000000000000000000000000000815260040161088090613fb0565b60405180910390fd5b6108938383611e6d565b505050565b6108a96108a3611e65565b82611f26565b6108e8576040517f08c379a00000000000000000000000000000000000000000000000000000000081526004016108df906140b0565b60405180910390fd5b6108f3838383612004565b505050565b61091383838360405180602001604052806000815250610f2d565b505050565b6000806002600084815260200190815260200160002060009054906101000a900473ffffffffffffffffffffffffffffffffffffffff169050600073ffffffffffffffffffffffffffffffffffffffff168173ffffffffffffffffffffffffffffffffffffffff1614156109c1576040517f08c379a00000000000000000000000000000000000000000000000000000000081526004016109b890613ff0565b60405180910390fd5b80915050919050565b60008073ffffffffffffffffffffffffffffffffffffffff168273ffffffffffffffffffffffffffffffffffffffff161415610a3b576040517f08c379a0000000000000000000000000000000000000000000000000000000008152600401610a3290613fd0565b60405180910390fd5b600360008373ffffffffffffffffffffffffffffffffffffffff1673ffffffffffffffffffffffffffffffffffffffff168152602001908152602001600020549050919050565b600d6020528060005260406000206000915090505481565b606060018054610aa990614457565b80601f0160208091040260200160405190810160405280929190818152602001828054610ad590614457565b8015610b225780601f10610af757610100808354040283529160200191610b22565b820191906000526020600020905b815481529060010190602001808311610b0557829003601f168201915b5050505050905090565b600e602052806000526040600020600091509050806000015490806001018054610b5590614457565b80601f0160208091040260200160405190810160405280929190818152602001828054610b8190614457565b8015610bce5780601f10610ba357610100808354040283529160200191610bce565b820191906000526020600020905b815481529060010190602001808311610bb157829003601f168201915b505050505090806002018054610be390614457565b80601f0160208091040260200160405190810160405280929190818152602001828054610c0f90614457565b8015610c5c5780601f10610c3157610100808354040283529160200191610c5c565b820191906000526020600020905b815481529060010190602001808311610c3f57829003601f168201915b5050505050908060030154908060040154908060050154905086565b610c80611e65565b73ffffffffffffffffffffffffffffffffffffffff168273ffffffffffffffffffffffffffffffffffffffff161415610cee576040517f08c379a0000000000000000000000000000000000000000000000000000000008152600401610ce590613f70565b60405180910390fd5b8060056000610cfb611e65565b73ffffffffffffffffffffffffffffffffffffffff1673ffffffffffffffffffffffffffffffffffffffff16815260200190815260200160002060008473ffffffffffffffffffffffffffffffffffffffff1673ffffffffffffffffffffffffffffffffffffffff16815260200190815260200160002060006101000a81548160ff0219169083151502179055508173ffffffffffffffffffffffffffffffffffffffff16610da8611e65565b73ffffffffffffffffffffffffffffffffffffffff167f17307eab39ab6107e8899845ad3d59bd9653f200f220920489ca2b5937696c3183604051610ded9190613d37565b60405180910390a35050565b6006806000018054610e0a90614457565b80601f0160208091040260200160405190810160405280929190818152602001828054610e3690614457565b8015610e835780601f10610e5857610100808354040283529160200191610e83565b820191906000526020600020905b815481529060010190602001808311610e6657829003601f168201915b505050505090806001018054610e9890614457565b80601f0160208091040260200160405190810160405280929190818152602001828054610ec490614457565b8015610f115780601f10610ee657610100808354040283529160200191610f11565b820191906000526020600020905b815481529060010190602001808311610ef457829003601f168201915b5050505050908060020154908060030154908060040154905085565b610f3e610f38611e65565b83611f26565b610f7d576040517f08c379a0000000000000000000000000000000000000000000000000000000008152600401610f74906140b0565b60405180910390fd5b610f8984848484612260565b50505050565b6060600c805480602002602001604051908101604052809291908181526020016000905b8282101561113157838290600052602060002090600602016040518060c001604052908160008201548152602001600182018054610ff090614457565b80601f016020809104026020016040519081016040528092919081815260200182805461101c90614457565b80156110695780601f1061103e57610100808354040283529160200191611069565b820191906000526020600020905b81548152906001019060200180831161104c57829003601f168201915b5050505050815260200160028201805461108290614457565b80601f01602080910402602001604051908101604052809291908181526020018280546110ae90614457565b80156110fb5780601f106110d0576101008083540402835291602001916110fb565b820191906000526020600020905b8154815290600101906020018083116110de57829003601f168201915b50505050508152602001600382015481526020016004820154815260200160058201548152505081526020019060010190610fb3565b50505050905090565b60606000600e60008481526020019081526020016000206040518060c00160405290816000820154815260200160018201805461117690614457565b80601f01602080910402602001604051908101604052809291908181526020018280546111a290614457565b80156111ef5780601f106111c4576101008083540402835291602001916111ef565b820191906000526020600020905b8154815290600101906020018083116111d257829003601f168201915b5050505050815260200160028201805461120890614457565b80601f016020809104026020016040519081016040528092919081815260200182805461123490614457565b80156112815780601f1061125657610100808354040283529160200191611281565b820191906000526020600020905b81548152906001019060200180831161126457829003601f168201915b505050505081526020016003820154815260200160048201548152602001600582015481525050905060006112b982606001516122bc565b905060006112ca83608001516122bc565b905060006112db8460a001516122bc565b9050600061132185602001516112f0896122bc565b876040015187878760405160200161130d96959493929190613bb0565b604051602081830303815290604052612469565b90506000816040516020016113369190613c55565b6040516020818303038152906040529050809650505050505050919050565b61135d612c60565b6000600d60003373ffffffffffffffffffffffffffffffffffffffff1673ffffffffffffffffffffffffffffffffffffffff168152602001908152602001600020549050600081111561151c57600e60008281526020019081526020016000206040518060c0016040529081600082015481526020016001820180546113e290614457565b80601f016020809104026020016040519081016040528092919081815260200182805461140e90614457565b801561145b5780601f106114305761010080835404028352916020019161145b565b820191906000526020600020905b81548152906001019060200180831161143e57829003601f168201915b5050505050815260200160028201805461147490614457565b80601f01602080910402602001604051908101604052809291908181526020018280546114a090614457565b80156114ed5780601f106114c2576101008083540402835291602001916114ed565b820191906000526020600020905b8154815290600101906020018083116114d057829003601f168201915b50505050508152602001600382015481526020016004820154815260200160058201548152505091505061152a565b611524612c60565b80925050505b90565b6000600d60003373ffffffffffffffffffffffffffffffffffffffff1673ffffffffffffffffffffffffffffffffffffffff1681526020019081526020016000205490506000600e600083815260200190815260200160002090506116406040518060600160405280603c81526020016146c3603c91398260010180546115b390614457565b80601f01602080910402602001604051908101604052809291908181526020018280546115df90614457565b801561162c5780601f106116015761010080835404028352916020019161162c565b820191906000526020600020905b81548152906001019060200180831161160f57829003601f168201915b505050505083600301548460050154612627565b6117186040518060400160405280601b81526020017f426f73732025732068617320257320485020616e6420257320414400000000008152506006600001805461168990614457565b80601f01602080910402602001604051908101604052809291908181526020018280546116b590614457565b80156117025780601f106116d757610100808354040283529160200191611702565b820191906000526020600020905b8154815290600101906020018083116116e557829003601f168201915b5050505050600660020154600660040154612627565b600081600301541161175f576040517f08c379a000000000000000000000000000000000000000000000000000000000815260040161175690614010565b60405180910390fd5b6000600660020154116117a7576040517f08c379a000000000000000000000000000000000000000000000000000000000815260040161179e90613f10565b60405180910390fd5b806005015460066002015410156117c85760006006600201819055506117e7565b80600501546006600201546117dd919061436d565b6006600201819055505b600660040154816003015410156118075760008160030181905550611825565b600660040154816003015461181c919061436d565b81600301819055505b61184b60405180606001604052806028815260200161466d6028913982600301546126c9565b5050565b6000600560008473ffffffffffffffffffffffffffffffffffffffff1673ffffffffffffffffffffffffffffffffffffffff16815260200190815260200160002060008373ffffffffffffffffffffffffffffffffffffffff1673ffffffffffffffffffffffffffffffffffffffff16815260200190815260200160002060009054906101000a900460ff16905092915050565b60006118ef600b612765565b90506118fb3382612773565b6040518060c00160405280838152602001600c8481548110611946577f4e487b7100000000000000000000000000000000000000000000000000000000600052603260045260246000fd5b9060005260206000209060060201600101805461196290614457565b80601f016020809104026020016040519081016040528092919081815260200182805461198e90614457565b80156119db5780601f106119b0576101008083540402835291602001916119db565b820191906000526020600020905b8154815290600101906020018083116119be57829003601f168201915b50505050508152602001600c8481548110611a1f577f4e487b7100000000000000000000000000000000000000000000000000000000600052603260045260246000fd5b90600052602060002090600602016002018054611a3b90614457565b80601f0160208091040260200160405190810160405280929190818152602001828054611a6790614457565b8015611ab45780601f10611a8957610100808354040283529160200191611ab4565b820191906000526020600020905b815481529060010190602001808311611a9757829003601f168201915b50505050508152602001600c8481548110611af8577f4e487b7100000000000000000000000000000000000000000000000000000000600052603260045260246000fd5b9060005260206000209060060201600301548152602001600c8481548110611b49577f4e487b7100000000000000000000000000000000000000000000000000000000600052603260045260246000fd5b9060005260206000209060060201600301548152602001600c8481548110611b9a577f4e487b7100000000000000000000000000000000000000000000000000000000600052603260045260246000fd5b906000526020600020906006020160050154815250600e6000838152602001908152602001600020600082015181600001556020820151816001019080519060200190611be8929190612c96565b506040820151816002019080519060200190611c05929190612c96565b50606082015181600301556080820151816004015560a08201518160050155905050611c4a6040518060600160405280602e8152602001614695602e91398284612791565b80600d60003373ffffffffffffffffffffffffffffffffffffffff1673ffffffffffffffffffffffffffffffffffffffff16815260200190815260200160002081905550611c98600b611d79565b7f4bc303fd457a97b4691b9af582ce71868a3d258638c8d4f8c60988a0f0bfb8cd338284604051611ccb93929190613cde565b60405180910390a15050565b611d7384848484604051602401611cf19493929190613d74565b6040516020818303038152906040527f8d142cdd000000000000000000000000000000000000000000000000000000007bffffffffffffffffffffffffffffffffffffffffffffffffffffffff19166020820180517bffffffffffffffffffffffffffffffffffffffffffffffffffffffff8381831617835250505050612830565b50505050565b6001816000016000828254019250508190555050565b60007f01ffc9a7000000000000000000000000000000000000000000000000000000007bffffffffffffffffffffffffffffffffffffffffffffffffffffffff1916827bffffffffffffffffffffffffffffffffffffffffffffffffffffffff1916149050919050565b60008073ffffffffffffffffffffffffffffffffffffffff166002600084815260200190815260200160002060009054906101000a900473ffffffffffffffffffffffffffffffffffffffff1673ffffffffffffffffffffffffffffffffffffffff1614159050919050565b600033905090565b816004600083815260200190815260200160002060006101000a81548173ffffffffffffffffffffffffffffffffffffffff021916908373ffffffffffffffffffffffffffffffffffffffff160217905550808273ffffffffffffffffffffffffffffffffffffffff16611ee083610918565b73ffffffffffffffffffffffffffffffffffffffff167f8c5be1e5ebec7d5bd14f71427d1e84f3dd0314c0f7b2291e5b200ac8c7c3b92560405160405180910390a45050565b6000611f3182611df9565b611f70576040517f08c379a0000000000000000000000000000000000000000000000000000000008152600401611f6790613f90565b60405180910390fd5b6000611f7b83610918565b90508073ffffffffffffffffffffffffffffffffffffffff168473ffffffffffffffffffffffffffffffffffffffff161480611fea57508373ffffffffffffffffffffffffffffffffffffffff16611fd2846106fb565b73ffffffffffffffffffffffffffffffffffffffff16145b80611ffb5750611ffa818561184f565b5b91505092915050565b8273ffffffffffffffffffffffffffffffffffffffff1661202482610918565b73ffffffffffffffffffffffffffffffffffffffff161461207a576040517f08c379a000000000000000000000000000000000000000000000000000000000815260040161207190614070565b60405180910390fd5b600073ffffffffffffffffffffffffffffffffffffffff168273ffffffffffffffffffffffffffffffffffffffff1614156120ea576040517f08c379a00000000000000000000000000000000000000000000000000000000081526004016120e190613f50565b60405180910390fd5b6120f5838383612859565b612100600082611e6d565b6001600360008573ffffffffffffffffffffffffffffffffffffffff1673ffffffffffffffffffffffffffffffffffffffff1681526020019081526020016000206000828254612150919061436d565b925050819055506001600360008473ffffffffffffffffffffffffffffffffffffffff1673ffffffffffffffffffffffffffffffffffffffff16815260200190815260200160002060008282546121a7919061428c565b92505081905550816002600083815260200190815260200160002060006101000a81548173ffffffffffffffffffffffffffffffffffffffff021916908373ffffffffffffffffffffffffffffffffffffffff160217905550808273ffffffffffffffffffffffffffffffffffffffff168473ffffffffffffffffffffffffffffffffffffffff167fddf252ad1be2c89b69c2b068fc378daa952ba7f163c4a11628f55a4df523b3ef60405160405180910390a4505050565b61226b848484612004565b6122778484848461285e565b6122b6576040517f08c379a00000000000000000000000000000000000000000000000000000000081526004016122ad90613ef0565b60405180910390fd5b50505050565b60606000821415612304576040518060400160405280600181526020017f30000000000000000000000000000000000000000000000000000000000000008152509050612464565b600082905060005b6000821461233657808061231f90614489565b915050600a8261232f91906142e2565b915061230c565b60008167ffffffffffffffff811115612378577f4e487b7100000000000000000000000000000000000000000000000000000000600052604160045260246000fd5b6040519080825280601f01601f1916602001820160405280156123aa5781602001600182028036833780820191505090505b5090505b6000851461245d576001826123c3919061436d565b9150600a856123d291906144d2565b60306123de919061428c565b60f81b81838151811061241a577f4e487b7100000000000000000000000000000000000000000000000000000000600052603260045260246000fd5b60200101907effffffffffffffffffffffffffffffffffffffffffffffffffffffffffffff1916908160001a905350600a8561245691906142e2565b94506123ae565b8093505050505b919050565b606060008251905060008114156124925760405180602001604052806000815250915050612622565b600060036002836124a3919061428c565b6124ad91906142e2565b60046124b99190614313565b905060006020826124ca919061428c565b67ffffffffffffffff811115612509577f4e487b7100000000000000000000000000000000000000000000000000000000600052604160045260246000fd5b6040519080825280601f01601f19166020018201604052801561253b5781602001600182028036833780820191505090505b509050600060405180606001604052806040815260200161462d604091399050600181016020830160005b868110156125df5760038101905062ffffff818a015116603f8160121c168401518060081b905060ff603f83600c1c1686015116810190508060081b905060ff603f8360061c1686015116810190508060081b905060ff603f831686015116810190508060e01b90508084526004840193505050612566565b5060038606600181146125f9576002811461260957612614565b613d3d60f01b6002830352612614565b603d60f81b60018303525b508484525050819450505050505b919050565b6126c3848484846040516024016126419493929190613dce565b6040516020818303038152906040527fd5cf17d0000000000000000000000000000000000000000000000000000000007bffffffffffffffffffffffffffffffffffffffffffffffffffffffff19166020820180517bffffffffffffffffffffffffffffffffffffffffffffffffffffffff8381831617835250505050612830565b50505050565b61276182826040516024016126df929190613e82565b6040516020818303038152906040527f9710a9d0000000000000000000000000000000000000000000000000000000007bffffffffffffffffffffffffffffffffffffffffffffffffffffffff19166020820180517bffffffffffffffffffffffffffffffffffffffffffffffffffffffff8381831617835250505050612830565b5050565b600081600001549050919050565b61278d8282604051806020016040528060008152506129f5565b5050565b61282b8383836040516024016127a993929190613eb2565b6040516020818303038152906040527f969cdd03000000000000000000000000000000000000000000000000000000007bffffffffffffffffffffffffffffffffffffffffffffffffffffffff19166020820180517bffffffffffffffffffffffffffffffffffffffffffffffffffffffff8381831617835250505050612830565b505050565b60008151905060006a636f6e736f6c652e6c6f679050602083016000808483855afa5050505050565b505050565b600061287f8473ffffffffffffffffffffffffffffffffffffffff16612a50565b156129e8578373ffffffffffffffffffffffffffffffffffffffff1663150b7a026128a8611e65565b8786866040518563ffffffff1660e01b81526004016128ca9493929190613c92565b602060405180830381600087803b1580156128e457600080fd5b505af192505050801561291557506040513d601f19601f820116820180604052508101906129129190612fda565b60015b612998573d8060008114612945576040519150601f19603f3d011682016040523d82523d6000602084013e61294a565b606091505b50600081511415612990576040517f08c379a000000000000000000000000000000000000000000000000000000000815260040161298790613ef0565b60405180910390fd5b805181602001fd5b63150b7a0260e01b7bffffffffffffffffffffffffffffffffffffffffffffffffffffffff1916817bffffffffffffffffffffffffffffffffffffffffffffffffffffffff1916149150506129ed565b600190505b949350505050565b6129ff8383612a63565b612a0c600084848461285e565b612a4b576040517f08c379a0000000000000000000000000000000000000000000000000000000008152600401612a4290613ef0565b60405180910390fd5b505050565b600080823b905060008111915050919050565b600073ffffffffffffffffffffffffffffffffffffffff168273ffffffffffffffffffffffffffffffffffffffff161415612ad3576040517f08c379a0000000000000000000000000000000000000000000000000000000008152600401612aca90614030565b60405180910390fd5b612adc81611df9565b15612b1c576040517f08c379a0000000000000000000000000000000000000000000000000000000008152600401612b1390613f30565b60405180910390fd5b612b2860008383612859565b6001600360008473ffffffffffffffffffffffffffffffffffffffff1673ffffffffffffffffffffffffffffffffffffffff1681526020019081526020016000206000828254612b78919061428c565b92505081905550816002600083815260200190815260200160002060006101000a81548173ffffffffffffffffffffffffffffffffffffffff021916908373ffffffffffffffffffffffffffffffffffffffff160217905550808273ffffffffffffffffffffffffffffffffffffffff16600073ffffffffffffffffffffffffffffffffffffffff167fddf252ad1be2c89b69c2b068fc378daa952ba7f163c4a11628f55a4df523b3ef60405160405180910390a45050565b6040518060a0016040528060608152602001606081526020016000815260200160008152602001600081525090565b6040518060c001604052806000815260200160608152602001606081526020016000815260200160008152602001600081525090565b828054612ca290614457565b90600052602060002090601f016020900481019282612cc45760008555612d0b565b82601f10612cdd57805160ff1916838001178555612d0b565b82800160010185558215612d0b579182015b82811115612d0a578251825591602001919060010190612cef565b5b509050612d189190612d1c565b5090565b5b80821115612d35576000816000905550600101612d1d565b5090565b6000612d4c612d47846141cf565b61419e565b905082815260208101848484011115612d6457600080fd5b612d6f848285614415565b509392505050565b600081359050612d86816145d0565b92915050565b600081359050612d9b816145e7565b92915050565b600081359050612db0816145fe565b92915050565b600081519050612dc5816145fe565b92915050565b600082601f830112612ddc57600080fd5b8135612dec848260208601612d39565b91505092915050565b600081359050612e0481614615565b92915050565b600060208284031215612e1c57600080fd5b6000612e2a84828501612d77565b91505092915050565b60008060408385031215612e4657600080fd5b6000612e5485828601612d77565b9250506020612e6585828601612d77565b9150509250929050565b600080600060608486031215612e8457600080fd5b6000612e9286828701612d77565b9350506020612ea386828701612d77565b9250506040612eb486828701612df5565b9150509250925092565b60008060008060808587031215612ed457600080fd5b6000612ee287828801612d77565b9450506020612ef387828801612d77565b9350506040612f0487828801612df5565b925050606085013567ffffffffffffffff811115612f2157600080fd5b612f2d87828801612dcb565b91505092959194509250565b60008060408385031215612f4c57600080fd5b6000612f5a85828601612d77565b9250506020612f6b85828601612d8c565b9150509250929050565b60008060408385031215612f8857600080fd5b6000612f9685828601612d77565b9250506020612fa785828601612df5565b9150509250929050565b600060208284031215612fc357600080fd5b6000612fd184828501612da1565b91505092915050565b600060208284031215612fec57600080fd5b6000612ffa84828501612db6565b91505092915050565b60006020828403121561301557600080fd5b600061302384828501612df5565b91505092915050565b60006130388383613a72565b905092915050565b613049816143a1565b82525050565b600061305a8261420f565b613064818561423d565b935083602082028501613076856141ff565b8060005b858110156130b25784840389528151613093858261302c565b945061309e83614230565b925060208a0199505060018101905061307a565b50829750879550505050505092915050565b6130cd816143b3565b82525050565b60006130de8261421a565b6130e8818561424e565b93506130f8818560208601614424565b613101816145bf565b840191505092915050565b600061311782614225565b613121818561425f565b9350613131818560208601614424565b61313a816145bf565b840191505092915050565b600061315082614225565b61315a8185614270565b935061316a818560208601614424565b613173816145bf565b840191505092915050565b600061318982614225565b6131938185614281565b93506131a3818560208601614424565b80840191505092915050565b60006131bc600b83614281565b91507f202d2d204e465420233a200000000000000000000000000000000000000000006000830152600b82019050919050565b60006131fc603283614270565b91507f4552433732313a207472616e7366657220746f206e6f6e20455243373231526560008301527f63656976657220696d706c656d656e74657200000000000000000000000000006020830152604082019050919050565b6000613262602883614270565b91507f4572726f723a20626f7373206d757374206861766520485020746f206174746160008301527f636b20626f73732e0000000000000000000000000000000000000000000000006020830152604082019050919050565b60006132c8601c83614270565b91507f4552433732313a20746f6b656e20616c7265616479206d696e746564000000006000830152602082019050919050565b6000613308600e83614281565b91507f2c20226d61785f76616c7565223a0000000000000000000000000000000000006000830152600e82019050919050565b6000613348602483614270565b91507f4552433732313a207472616e7366657220746f20746865207a65726f2061646460008301527f72657373000000000000000000000000000000000000000000000000000000006020830152604082019050919050565b60006133ae601983614270565b91507f4552433732313a20617070726f766520746f2063616c6c6572000000000000006000830152602082019050919050565b60006133ee602c83614270565b91507f4552433732313a206f70657261746f7220717565727920666f72206e6f6e657860008301527f697374656e7420746f6b656e00000000000000000000000000000000000000006020830152604082019050919050565b6000613454603883614270565b91507f4552433732313a20617070726f76652063616c6c6572206973206e6f74206f7760008301527f6e6572206e6f7220617070726f76656420666f7220616c6c00000000000000006020830152604082019050919050565b60006134ba602a83614270565b91507f4552433732313a2062616c616e636520717565727920666f7220746865207a6560008301527f726f2061646472657373000000000000000000000000000000000000000000006020830152604082019050919050565b6000613520602983614270565b91507f4552433732313a206f776e657220717565727920666f72206e6f6e657869737460008301527f656e7420746f6b656e00000000000000000000000000000000000000000000006020830152604082019050919050565b6000613586606283614281565b91507f222c20226465736372697074696f6e223a20225468697320697320616e204e4660008301527f542074686174206c6574732070656f706c6520706c617920696e20746865206760208301527f616d65204d657461766572736520536c6179657221222c2022696d616765223a60408301527f20220000000000000000000000000000000000000000000000000000000000006060830152606282019050919050565b6000613638602d83614270565b91507f4572726f723a20636861726163746572206d757374206861766520485020746f60008301527f2061747461636b20626f73732e000000000000000000000000000000000000006020830152604082019050919050565b600061369e600483614281565b91507f7d205d7d000000000000000000000000000000000000000000000000000000006000830152600482019050919050565b60006136de602083614270565b91507f4552433732313a206d696e7420746f20746865207a65726f20616464726573736000830152602082019050919050565b600061371e602c83614270565b91507f4552433732313a20617070726f76656420717565727920666f72206e6f6e657860008301527f697374656e7420746f6b656e00000000000000000000000000000000000000006020830152604082019050919050565b6000613784602983614270565b91507f4552433732313a207472616e73666572206f6620746f6b656e2074686174206960008301527f73206e6f74206f776e00000000000000000000000000000000000000000000006020830152604082019050919050565b60006137ea600a83614281565b91507f7b226e616d65223a2022000000000000000000000000000000000000000000006000830152600a82019050919050565b600061382a602183614270565b91507f4552433732313a20617070726f76616c20746f2063757272656e74206f776e6560008301527f72000000000000000000000000000000000000000000000000000000000000006020830152604082019050919050565b6000613890601d83614281565b91507f646174613a6170706c69636174696f6e2f6a736f6e3b6261736536342c0000006000830152601d82019050919050565b60006138d0603183614270565b91507f4552433732313a207472616e736665722063616c6c6572206973206e6f74206f60008301527f776e6572206e6f7220617070726f7665640000000000000000000000000000006020830152604082019050919050565b6000613936603d83614281565b91507f222c202261747472696275746573223a205b207b202274726169745f7479706560008301527f223a20224865616c746820506f696e7473222c202276616c7565223a200000006020830152603d82019050919050565b600061399c602d83614281565b91507f7d2c207b202274726169745f74797065223a202241747461636b2044616d616760008301527f65222c202276616c7565223a20000000000000000000000000000000000000006020830152602d82019050919050565b600060a0830160008301518482036000860152613a12828261310c565b91505060208301518482036020860152613a2c828261310c565b9150506040830151613a416040860182613b92565b506060830151613a546060860182613b92565b506080830151613a676080860182613b92565b508091505092915050565b600060c083016000830151613a8a6000860182613b92565b5060208301518482036020860152613aa2828261310c565b91505060408301518482036040860152613abc828261310c565b9150506060830151613ad16060860182613b92565b506080830151613ae46080860182613b92565b5060a0830151613af760a0860182613b92565b508091505092915050565b600060c083016000830151613b1a6000860182613b92565b5060208301518482036020860152613b32828261310c565b91505060408301518482036040860152613b4c828261310c565b9150506060830151613b616060860182613b92565b506080830151613b746080860182613b92565b5060a0830151613b8760a0860182613b92565b508091505092915050565b613b9b8161440b565b82525050565b613baa8161440b565b82525050565b6000613bbb826137dd565b9150613bc7828961317e565b9150613bd2826131af565b9150613bde828861317e565b9150613be982613579565b9150613bf5828761317e565b9150613c0082613929565b9150613c0c828661317e565b9150613c17826132fb565b9150613c23828561317e565b9150613c2e8261398f565b9150613c3a828461317e565b9150613c4582613691565b9150819050979650505050505050565b6000613c6082613883565b9150613c6c828461317e565b915081905092915050565b6000602082019050613c8c6000830184613040565b92915050565b6000608082019050613ca76000830187613040565b613cb46020830186613040565b613cc16040830185613ba1565b8181036060830152613cd381846130d3565b905095945050505050565b6000606082019050613cf36000830186613040565b613d006020830185613ba1565b613d0d6040830184613ba1565b949350505050565b60006020820190508181036000830152613d2f818461304f565b905092915050565b6000602082019050613d4c60008301846130c4565b92915050565b60006020820190508181036000830152613d6c8184613145565b905092915050565b60006080820190508181036000830152613d8e8187613145565b90508181036020830152613da28186613145565b9050613db16040830185613ba1565b8181036060830152613dc38184613145565b905095945050505050565b60006080820190508181036000830152613de88187613145565b90508181036020830152613dfc8186613145565b9050613e0b6040830185613ba1565b613e186060830184613ba1565b95945050505050565b600060a0820190508181036000830152613e3b8188613145565b90508181036020830152613e4f8187613145565b9050613e5e6040830186613ba1565b613e6b6060830185613ba1565b613e786080830184613ba1565b9695505050505050565b60006040820190508181036000830152613e9c8185613145565b9050613eab6020830184613ba1565b9392505050565b60006060820190508181036000830152613ecc8186613145565b9050613edb6020830185613ba1565b613ee86040830184613ba1565b949350505050565b60006020820190508181036000830152613f09816131ef565b9050919050565b60006020820190508181036000830152613f2981613255565b9050919050565b60006020820190508181036000830152613f49816132bb565b9050919050565b60006020820190508181036000830152613f698161333b565b9050919050565b60006020820190508181036000830152613f89816133a1565b9050919050565b60006020820190508181036000830152613fa9816133e1565b9050919050565b60006020820190508181036000830152613fc981613447565b9050919050565b60006020820190508181036000830152613fe9816134ad565b9050919050565b6000602082019050818103600083015261400981613513565b9050919050565b600060208201905081810360008301526140298161362b565b9050919050565b60006020820190508181036000830152614049816136d1565b9050919050565b6000602082019050818103600083015261406981613711565b9050919050565b6000602082019050818103600083015261408981613777565b9050919050565b600060208201905081810360008301526140a98161381d565b9050919050565b600060208201905081810360008301526140c9816138c3565b9050919050565b600060208201905081810360008301526140ea81846139f5565b905092915050565b6000602082019050818103600083015261410c8184613b02565b905092915050565b60006020820190506141296000830184613ba1565b92915050565b600060c0820190506141446000830189613ba1565b81810360208301526141568188613145565b9050818103604083015261416a8187613145565b90506141796060830186613ba1565b6141866080830185613ba1565b61419360a0830184613ba1565b979650505050505050565b6000604051905081810181811067ffffffffffffffff821117156141c5576141c4614590565b5b8060405250919050565b600067ffffffffffffffff8211156141ea576141e9614590565b5b601f19601f8301169050602081019050919050565b6000819050602082019050919050565b600081519050919050565b600081519050919050565b600081519050919050565b6000602082019050919050565b600082825260208201905092915050565b600082825260208201905092915050565b600082825260208201905092915050565b600082825260208201905092915050565b600081905092915050565b60006142978261440b565b91506142a28361440b565b9250827fffffffffffffffffffffffffffffffffffffffffffffffffffffffffffffffff038211156142d7576142d6614503565b5b828201905092915050565b60006142ed8261440b565b91506142f88361440b565b92508261430857614307614532565b5b828204905092915050565b600061431e8261440b565b91506143298361440b565b9250817fffffffffffffffffffffffffffffffffffffffffffffffffffffffffffffffff048311821515161561436257614361614503565b5b828202905092915050565b60006143788261440b565b91506143838361440b565b92508282101561439657614395614503565b5b828203905092915050565b60006143ac826143eb565b9050919050565b60008115159050919050565b60007fffffffff0000000000000000000000000000000000000000000000000000000082169050919050565b600073ffffffffffffffffffffffffffffffffffffffff82169050919050565b6000819050919050565b82818337600083830152505050565b60005b83811015614442578082015181840152602081019050614427565b83811115614451576000848401525b50505050565b6000600282049050600182168061446f57607f821691505b6020821081141561448357614482614561565b5b50919050565b60006144948261440b565b91507fffffffffffffffffffffffffffffffffffffffffffffffffffffffffffffffff8214156144c7576144c6614503565b5b600182019050919050565b60006144dd8261440b565b91506144e88361440b565b9250826144f8576144f7614532565b5b828206905092915050565b7f4e487b7100000000000000000000000000000000000000000000000000000000600052601160045260246000fd5b7f4e487b7100000000000000000000000000000000000000000000000000000000600052601260045260246000fd5b7f4e487b7100000000000000000000000000000000000000000000000000000000600052602260045260246000fd5b7f4e487b7100000000000000000000000000000000000000000000000000000000600052604160045260246000fd5b6000601f19601f8301169050919050565b6145d9816143a1565b81146145e457600080fd5b50565b6145f0816143b3565b81146145fb57600080fd5b50565b614607816143bf565b811461461257600080fd5b50565b61461e8161440b565b811461462957600080fd5b5056fe4142434445464748494a4b4c4d4e4f505152535455565758595a6162636465666768696a6b6c6d6e6f707172737475767778797a303132333435363738392b2f426f73732061747461636b656420706c617965722e204e657720706c617965722068703a2025730a4d696e746564204e465420772f20746f6b656e496420257320616e6420636861726163746572496e6465782025730a506c6179657220772f206368617261637465722025732061626f757420746f2061747461636b2e2048617320257320485020616e64202573204144a26469706673582212206770bf5d69c12207cd48f13a70d0412eb2963978297d56a6454a33a50553b64f64736f6c63430008000033446f6e6520696e697469616c697a696e6720257320772f2048502025732c20696d67202573446f6e6520696e697469616c697a696e6720626f737320257320772f2048502025732c20696d67202573",
    "linkReferences": {},
    "deployedLinkReferences": {}
}