{
    "_format": "hh-sol-artifact-1",
    "contractName": "MyEpicGame",
    "sourceName": "contracts/MyEpicGame.sol",
    "abi": [
        {
            "inputs": [
                {
                    "internalType": "string[]",
                    "name": "characterNames",
                    "type": "string[]"
                },
                {
                    "internalType": "string[]",
                    "name": "characterImageURIs",
                    "type": "string[]"
                },
                {
                    "internalType": "uint256[]",
                    "name": "characterHp",
                    "type": "uint256[]"
                },
                {
                    "internalType": "uint256[]",
                    "name": "characterAttackDmg",
                    "type": "uint256[]"
                },
                {
                    "internalType": "string",
                    "name": "bossName",
                    "type": "string"
                },
                {
                    "internalType": "string",
                    "name": "bossImageURI",
                    "type": "string"
                },
                {
                    "internalType": "uint256",
                    "name": "bossHp",
                    "type": "uint256"
                },
                {
                    "internalType": "uint256",
                    "name": "bossAttackDamage",
                    "type": "uint256"
                }
            ],
            "stateMutability": "nonpayable",
            "type": "constructor"
        },
        {
            "anonymous": false,
            "inputs": [
                {
                    "indexed": true,
                    "internalType": "address",
                    "name": "owner",
                    "type": "address"
                },
                {
                    "indexed": true,
                    "internalType": "address",
                    "name": "approved",
                    "type": "address"
                },
                {
                    "indexed": true,
                    "internalType": "uint256",
                    "name": "tokenId",
                    "type": "uint256"
                }
            ],
            "name": "Approval",
            "type": "event"
        },
        {
            "anonymous": false,
            "inputs": [
                {
                    "indexed": true,
                    "internalType": "address",
                    "name": "owner",
                    "type": "address"
                },
                {
                    "indexed": true,
                    "internalType": "address",
                    "name": "operator",
                    "type": "address"
                },
                {
                    "indexed": false,
                    "internalType": "bool",
                    "name": "approved",
                    "type": "bool"
                }
            ],
            "name": "ApprovalForAll",
            "type": "event"
        },
        {
            "anonymous": false,
            "inputs": [
                {
                    "indexed": false,
                    "internalType": "uint256",
                    "name": "newBossHp",
                    "type": "uint256"
                },
                {
                    "indexed": false,
                    "internalType": "uint256",
                    "name": "newPlayerHp",
                    "type": "uint256"
                }
            ],
            "name": "AttackComplete",
            "type": "event"
        },
        {
            "anonymous": false,
            "inputs": [
                {
                    "indexed": false,
                    "internalType": "address",
                    "name": "sender",
                    "type": "address"
                },
                {
                    "indexed": false,
                    "internalType": "uint256",
                    "name": "tokenId",
                    "type": "uint256"
                },
                {
                    "indexed": false,
                    "internalType": "uint256",
                    "name": "characterIndex",
                    "type": "uint256"
                }
            ],
            "name": "CharacterNFTMinted",
            "type": "event"
        },
        {
            "anonymous": false,
            "inputs": [
                {
                    "indexed": true,
                    "internalType": "address",
                    "name": "from",
                    "type": "address"
                },
                {
                    "indexed": true,
                    "internalType": "address",
                    "name": "to",
                    "type": "address"
                },
                {
                    "indexed": true,
                    "internalType": "uint256",
                    "name": "tokenId",
                    "type": "uint256"
                }
            ],
            "name": "Transfer",
            "type": "event"
        },
        {
            "inputs": [
                {
                    "internalType": "address",
                    "name": "to",
                    "type": "address"
                },
                {
                    "internalType": "uint256",
                    "name": "tokenId",
                    "type": "uint256"
                }
            ],
            "name": "approve",
            "outputs": [],
            "stateMutability": "nonpayable",
            "type": "function"
        },
        {
            "inputs": [],
            "name": "attackBoss",
            "outputs": [],
            "stateMutability": "nonpayable",
            "type": "function"
        },
        {
            "inputs": [
                {
                    "internalType": "address",
                    "name": "owner",
                    "type": "address"
                }
            ],
            "name": "balanceOf",
            "outputs": [
                {
                    "internalType": "uint256",
                    "name": "",
                    "type": "uint256"
                }
            ],
            "stateMutability": "view",
            "type": "function"
        },
        {
            "inputs": [],
            "name": "bigBoss",
            "outputs": [
                {
                    "internalType": "string",
                    "name": "name",
                    "type": "string"
                },
                {
                    "internalType": "string",
                    "name": "imageURI",
                    "type": "string"
                },
                {
                    "internalType": "uint256",
                    "name": "hp",
                    "type": "uint256"
                },
                {
                    "internalType": "uint256",
                    "name": "maxHp",
                    "type": "uint256"
                },
                {
                    "internalType": "uint256",
                    "name": "attackDamage",
                    "type": "uint256"
                }
            ],
            "stateMutability": "view",
            "type": "function"
        },
        {
            "inputs": [],
            "name": "checkIfUserHasNFT",
            "outputs": [
                {
                    "components": [
                        {
                            "internalType": "uint256",
                            "name": "characterIndex",
                            "type": "uint256"
                        },
                        {
                            "internalType": "string",
                            "name": "name",
                            "type": "string"
                        },
                        {
                            "internalType": "string",
                            "name": "imageURI",
                            "type": "string"
                        },
                        {
                            "internalType": "uint256",
                            "name": "hp",
                            "type": "uint256"
                        },
                        {
                            "internalType": "uint256",
                            "name": "maxHp",
                            "type": "uint256"
                        },
                        {
                            "internalType": "uint256",
                            "name": "attackDamage",
                            "type": "uint256"
                        }
                    ],
                    "internalType": "struct MyEpicGame.CharacterAttributes",
                    "name": "",
                    "type": "tuple"
                }
            ],
            "stateMutability": "view",
            "type": "function"
        },
        {
            "inputs": [
                {
                    "internalType": "uint256",
                    "name": "tokenId",
                    "type": "uint256"
                }
            ],
            "name": "getApproved",
            "outputs": [
                {
                    "internalType": "address",
                    "name": "",
                    "type": "address"
                }
            ],
            "stateMutability": "view",
            "type": "function"
        },
        {
            "inputs": [],
            "name": "getBigBoss",
            "outputs": [
                {
                    "components": [
                        {
                            "internalType": "string",
                            "name": "name",
                            "type": "string"
                        },
                        {
                            "internalType": "string",
                            "name": "imageURI",
                            "type": "string"
                        },
                        {
                            "internalType": "uint256",
                            "name": "hp",
                            "type": "uint256"
                        },
                        {
                            "internalType": "uint256",
                            "name": "maxHp",
                            "type": "uint256"
                        },
                        {
                            "internalType": "uint256",
                            "name": "attackDamage",
                            "type": "uint256"
                        }
                    ],
                    "internalType": "struct MyEpicGame.BigBoss",
                    "name": "",
                    "type": "tuple"
                }
            ],
            "stateMutability": "view",
            "type": "function"
        },
        {
            "inputs": [
                {
                    "internalType": "address",
                    "name": "owner",
                    "type": "address"
                },
                {
                    "internalType": "address",
                    "name": "operator",
                    "type": "address"
                }
            ],
            "name": "isApprovedForAll",
            "outputs": [
                {
                    "internalType": "bool",
                    "name": "",
                    "type": "bool"
                }
            ],
            "stateMutability": "view",
            "type": "function"
        },
        {
            "inputs": [
                {
                    "internalType": "uint256",
                    "name": "_characterIndex",
                    "type": "uint256"
                }
            ],
            "name": "mintCharacterNFT",
            "outputs": [],
            "stateMutability": "nonpayable",
            "type": "function"
        },
        {
            "inputs": [],
            "name": "name",
            "outputs": [
                {
                    "internalType": "string",
                    "name": "",
                    "type": "string"
                }
            ],
            "stateMutability": "view",
            "type": "function"
        },
        {
            "inputs": [
                {
                    "internalType": "uint256",
                    "name": "",
                    "type": "uint256"
                }
            ],
            "name": "nftHolderAttributes",
            "outputs": [
                {
                    "internalType": "uint256",
                    "name": "characterIndex",
                    "type": "uint256"
                },
                {
                    "internalType": "string",
                    "name": "name",
                    "type": "string"
                },
                {
                    "internalType": "string",
                    "name": "imageURI",
                    "type": "string"
                },
                {
                    "internalType": "uint256",
                    "name": "hp",
                    "type": "uint256"
                },
                {
                    "internalType": "uint256",
                    "name": "maxHp",
                    "type": "uint256"
                },
                {
                    "internalType": "uint256",
                    "name": "attackDamage",
                    "type": "uint256"
                }
            ],
            "stateMutability": "view",
            "type": "function"
        },
        {
            "inputs": [
                {
                    "internalType": "address",
                    "name": "",
                    "type": "address"
                }
            ],
            "name": "nftHolders",
            "outputs": [
                {
                    "internalType": "uint256",
                    "name": "",
                    "type": "uint256"
                }
            ],
            "stateMutability": "view",
            "type": "function"
        },
        {
            "inputs": [
                {
                    "internalType": "uint256",
                    "name": "tokenId",
                    "type": "uint256"
                }
            ],
            "name": "ownerOf",
            "outputs": [
                {
                    "internalType": "address",
                    "name": "",
                    "type": "address"
                }
            ],
            "stateMutability": "view",
            "type": "function"
        },
        {
            "inputs": [
                {
                    "internalType": "address",
                    "name": "from",
                    "type": "address"
                },
                {
                    "internalType": "address",
                    "name": "to",
                    "type": "address"
                },
                {
                    "internalType": "uint256",
                    "name": "tokenId",
                    "type": "uint256"
                }
            ],
            "name": "safeTransferFrom",
            "outputs": [],
            "stateMutability": "nonpayable",
            "type": "function"
        },
        {
            "inputs": [
                {
                    "internalType": "address",
                    "name": "from",
                    "type": "address"
                },
                {
                    "internalType": "address",
                    "name": "to",
                    "type": "address"
                },
                {
                    "internalType": "uint256",
                    "name": "tokenId",
                    "type": "uint256"
                },
                {
                    "internalType": "bytes",
                    "name": "_data",
                    "type": "bytes"
                }
            ],
            "name": "safeTransferFrom",
            "outputs": [],
            "stateMutability": "nonpayable",
            "type": "function"
        },
        {
            "inputs": [
                {
                    "internalType": "address",
                    "name": "operator",
                    "type": "address"
                },
                {
                    "internalType": "bool",
                    "name": "approved",
                    "type": "bool"
                }
            ],
            "name": "setApprovalForAll",
            "outputs": [],
            "stateMutability": "nonpayable",
            "type": "function"
        },
        {
            "inputs": [
                {
                    "internalType": "bytes4",
                    "name": "interfaceId",
                    "type": "bytes4"
                }
            ],
            "name": "supportsInterface",
            "outputs": [
                {
                    "internalType": "bool",
                    "name": "",
                    "type": "bool"
                }
            ],
            "stateMutability": "view",
            "type": "function"
        },
        {
            "inputs": [],
            "name": "symbol",
            "outputs": [
                {
                    "internalType": "string",
                    "name": "",
                    "type": "string"
                }
            ],
            "stateMutability": "view",
            "type": "function"
        },
        {
            "inputs": [
                {
                    "internalType": "uint256",
                    "name": "_tokenId",
                    "type": "uint256"
                }
            ],
            "name": "tokenURI",
            "outputs": [
                {
                    "internalType": "string",
                    "name": "",
                    "type": "string"
                }
            ],
            "stateMutability": "view",
            "type": "function"
        },
        {
            "inputs": [
                {
                    "internalType": "address",
                    "name": "from",
                    "type": "address"
                },
                {
                    "internalType": "address",
                    "name": "to",
                    "type": "address"
                },
                {
                    "internalType": "uint256",
                    "name": "tokenId",
                    "type": "uint256"
                }
            ],
            "name": "transferFrom",
            "outputs": [],
            "stateMutability": "nonpayable",
            "type": "function"
        }
    ],
    "bytecode": "0x60806040523480156200001157600080fd5b506040516200531e3803806200531e833981810160405281019062000037919062000a5a565b6040518060400160405280600681526020017f4865726f657300000000000000000000000000000000000000000000000000008152506040518060400160405280600481526020017f4845524f000000000000000000000000000000000000000000000000000000008152508160009080519060200190620000bb929190620007ed565b508060019080519060200190620000d4929190620007ed565b5050506040518060a0016040528085815260200184815260200183815260200183815260200182815250600660008201518160000190805190602001906200011e929190620007ed565b5060208201518160010190805190602001906200013d929190620007ed565b50604082015181600201556060820151816003015560808201518160040155905050620002c06040518060600160405280602a8152602001620052f4602a9139600660000180546200018f9062000de5565b80601f0160208091040260200160405190810160405280929190818152602001828054620001bd9062000de5565b80156200020e5780601f10620001e2576101008083540402835291602001916200020e565b820191906000526020600020905b815481529060010190602001808311620001f057829003601f168201915b5050505050600660020154600660010180546200022b9062000de5565b80601f0160208091040260200160405190810160405280929190818152602001828054620002599062000de5565b8015620002aa5780601f106200027e57610100808354040283529160200191620002aa565b820191906000526020600020905b8154815290600101906020018083116200028c57829003601f168201915b50505050506200070260201b62001b031760201c565b60005b8851811015620006dc57600c6040518060c001604052808381526020018b84815181106200031a577f4e487b7100000000000000000000000000000000000000000000000000000000600052603260045260246000fd5b602002602001015181526020018a848151811062000361577f4e487b7100000000000000000000000000000000000000000000000000000000600052603260045260246000fd5b60200260200101518152602001898481518110620003a8577f4e487b7100000000000000000000000000000000000000000000000000000000600052603260045260246000fd5b60200260200101518152602001898481518110620003ef577f4e487b7100000000000000000000000000000000000000000000000000000000600052603260045260246000fd5b6020026020010151815260200188848151811062000436577f4e487b7100000000000000000000000000000000000000000000000000000000600052603260045260246000fd5b6020026020010151815250908060018154018082558091505060019003906000526020600020906006020160009091909190915060008201518160000155602082015181600101908051906020019062000492929190620007ed565b506040820151816002019080519060200190620004b1929190620007ed565b50606082015181600301556080820151816004015560a0820151816005015550506000600c82815481106200050f577f4e487b7100000000000000000000000000000000000000000000000000000000600052603260045260246000fd5b90600052602060002090600602016040518060c001604052908160008201548152602001600182018054620005449062000de5565b80601f0160208091040260200160405190810160405280929190818152602001828054620005729062000de5565b8015620005c35780601f106200059757610100808354040283529160200191620005c3565b820191906000526020600020905b815481529060010190602001808311620005a557829003601f168201915b50505050508152602001600282018054620005de9062000de5565b80601f01602080910402602001604051908101604052809291908181526020018280546200060c9062000de5565b80156200065d5780601f1062000631576101008083540402835291602001916200065d565b820191906000526020600020905b8154815290600101906020018083116200063f57829003601f168201915b5050505050815260200160038201548152602001600482015481526020016005820154815250509050620006c4604051806060016040528060258152602001620052cf602591398260200151836060015184604001516200070260201b62001b031760201c565b50600181620006d4919062000d48565b9050620002c3565b50620006f4600b620007ae60201b62001ba51760201c565b505050505050505062000ed3565b620007a8848484846040516024016200071f949392919062000c05565b6040516020818303038152906040527f8d142cdd000000000000000000000000000000000000000000000000000000007bffffffffffffffffffffffffffffffffffffffffffffffffffffffff19166020820180517bffffffffffffffffffffffffffffffffffffffffffffffffffffffff8381831617835250505050620007c460201b60201c565b50505050565b6001816000016000828254019250508190555050565b60008151905060006a636f6e736f6c652e6c6f679050602083016000808483855afa5050505050565b828054620007fb9062000de5565b90600052602060002090601f0160209004810192826200081f57600085556200086b565b82601f106200083a57805160ff19168380011785556200086b565b828001600101855582156200086b579182015b828111156200086a5782518255916020019190600101906200084d565b5b5090506200087a91906200087e565b5090565b5b80821115620008995760008160009055506001016200087f565b5090565b6000620008b4620008ae8462000c9b565b62000c67565b9050808382526020820190508260005b85811015620008f85781518501620008dd888262000a16565b845260208401935060208301925050600181019050620008c4565b5050509392505050565b600062000919620009138462000cca565b62000c67565b905080838252602082019050828560208602820111156200093957600080fd5b60005b858110156200096d578162000952888262000a43565b8452602084019350602083019250506001810190506200093c565b5050509392505050565b60006200098e620009888462000cf9565b62000c67565b905082815260208101848484011115620009a757600080fd5b620009b484828562000daf565b509392505050565b600082601f830112620009ce57600080fd5b8151620009e08482602086016200089d565b91505092915050565b600082601f830112620009fb57600080fd5b815162000a0d84826020860162000902565b91505092915050565b600082601f83011262000a2857600080fd5b815162000a3a84826020860162000977565b91505092915050565b60008151905062000a548162000eb9565b92915050565b600080600080600080600080610100898b03121562000a7857600080fd5b600089015167ffffffffffffffff81111562000a9357600080fd5b62000aa18b828c01620009bc565b985050602089015167ffffffffffffffff81111562000abf57600080fd5b62000acd8b828c01620009bc565b975050604089015167ffffffffffffffff81111562000aeb57600080fd5b62000af98b828c01620009e9565b965050606089015167ffffffffffffffff81111562000b1757600080fd5b62000b258b828c01620009e9565b955050608089015167ffffffffffffffff81111562000b4357600080fd5b62000b518b828c0162000a16565b94505060a089015167ffffffffffffffff81111562000b6f57600080fd5b62000b7d8b828c0162000a16565b93505060c062000b908b828c0162000a43565b92505060e062000ba38b828c0162000a43565b9150509295985092959890939650565b600062000bc08262000d2c565b62000bcc818562000d37565b935062000bde81856020860162000daf565b62000be98162000ea8565b840191505092915050565b62000bff8162000da5565b82525050565b6000608082019050818103600083015262000c21818762000bb3565b9050818103602083015262000c37818662000bb3565b905062000c48604083018562000bf4565b818103606083015262000c5c818462000bb3565b905095945050505050565b6000604051905081810181811067ffffffffffffffff8211171562000c915762000c9062000e79565b5b8060405250919050565b600067ffffffffffffffff82111562000cb95762000cb862000e79565b5b602082029050602081019050919050565b600067ffffffffffffffff82111562000ce85762000ce762000e79565b5b602082029050602081019050919050565b600067ffffffffffffffff82111562000d175762000d1662000e79565b5b601f19601f8301169050602081019050919050565b600081519050919050565b600082825260208201905092915050565b600062000d558262000da5565b915062000d628362000da5565b9250827fffffffffffffffffffffffffffffffffffffffffffffffffffffffffffffffff0382111562000d9a5762000d9962000e1b565b5b828201905092915050565b6000819050919050565b60005b8381101562000dcf57808201518184015260208101905062000db2565b8381111562000ddf576000848401525b50505050565b6000600282049050600182168062000dfe57607f821691505b6020821081141562000e155762000e1462000e4a565b5b50919050565b7f4e487b7100000000000000000000000000000000000000000000000000000000600052601160045260246000fd5b7f4e487b7100000000000000000000000000000000000000000000000000000000600052602260045260246000fd5b7f4e487b7100000000000000000000000000000000000000000000000000000000600052604160045260246000fd5b6000601f19601f8301169050919050565b62000ec48162000da5565b811462000ed057600080fd5b50565b6143ec8062000ee36000396000f3fe608060405234801561001057600080fd5b506004361061012c5760003560e01c806395d89b41116100ad578063c87b56dd11610071578063c87b56dd1461035e578063c8cf27f41461038e578063d4f24c5b146103ac578063e985e9c5146103b6578063f8b81ef7146103e65761012c565b806395d89b41146102b157806398da4c95146102cf578063a22cb46514610304578063a9c3267914610320578063b88d4fde146103425761012c565b806323b872dd116100f457806323b872dd146101e957806342842e0e146102055780636352211e1461022157806370a08231146102515780637df124a1146102815761012c565b806301ffc9a7146101315780630665f9611461016157806306fdde031461017f578063081812fc1461019d578063095ea7b3146101cd575b600080fd5b61014b60048036038101906101469190612ddd565b610402565b6040516101589190613a28565b60405180910390f35b6101696104e4565b6040516101769190613dc1565b60405180910390f35b610187610640565b6040516101949190613a43565b60405180910390f35b6101b760048036038101906101b29190612e2f565b6106d2565b6040516101c4919061398a565b60405180910390f35b6101e760048036038101906101e29190612da1565b610757565b005b61020360048036038101906101fe9190612c9b565b61086f565b005b61021f600480360381019061021a9190612c9b565b6108cf565b005b61023b60048036038101906102369190612e2f565b6108ef565b604051610248919061398a565b60405180910390f35b61026b60048036038101906102669190612c36565b6109a1565b6040516102789190613e05565b60405180910390f35b61029b60048036038101906102969190612c36565b610a59565b6040516102a89190613e05565b60405180910390f35b6102b9610a71565b6040516102c69190613a43565b60405180910390f35b6102e960048036038101906102e49190612e2f565b610b03565b6040516102fb96959493929190613e20565b60405180910390f35b61031e60048036038101906103199190612d65565b610c4f565b005b610328610dd0565b604051610339959493929190613b12565b60405180910390f35b61035c60048036038101906103579190612cea565b610f04565b005b61037860048036038101906103739190612e2f565b610f66565b6040516103859190613a43565b60405180910390f35b610396611181565b6040516103a39190613de3565b60405180910390f35b6103b4611359565b005b6103d060048036038101906103cb9190612c5f565b61167b565b6040516103dd9190613a28565b60405180910390f35b61040060048036038101906103fb9190612e2f565b61170f565b005b60007f80ac58cd000000000000000000000000000000000000000000000000000000007bffffffffffffffffffffffffffffffffffffffffffffffffffffffff1916827bffffffffffffffffffffffffffffffffffffffffffffffffffffffff191614806104cd57507f5b5e139f000000000000000000000000000000000000000000000000000000007bffffffffffffffffffffffffffffffffffffffffffffffffffffffff1916827bffffffffffffffffffffffffffffffffffffffffffffffffffffffff1916145b806104dd57506104dc82611bbb565b5b9050919050565b6104ec612a5d565b60066040518060a00160405290816000820180546105099061410f565b80601f01602080910402602001604051908101604052809291908181526020018280546105359061410f565b80156105825780601f1061055757610100808354040283529160200191610582565b820191906000526020600020905b81548152906001019060200180831161056557829003601f168201915b5050505050815260200160018201805461059b9061410f565b80601f01602080910402602001604051908101604052809291908181526020018280546105c79061410f565b80156106145780601f106105e957610100808354040283529160200191610614565b820191906000526020600020905b8154815290600101906020018083116105f757829003601f168201915b505050505081526020016002820154815260200160038201548152602001600482015481525050905090565b60606000805461064f9061410f565b80601f016020809104026020016040519081016040528092919081815260200182805461067b9061410f565b80156106c85780601f1061069d576101008083540402835291602001916106c8565b820191906000526020600020905b8154815290600101906020018083116106ab57829003601f168201915b5050505050905090565b60006106dd82611c25565b61071c576040517f08c379a000000000000000000000000000000000000000000000000000000000815260040161071390613d41565b60405180910390fd5b6004600083815260200190815260200160002060009054906101000a900473ffffffffffffffffffffffffffffffffffffffff169050919050565b6000610762826108ef565b90508073ffffffffffffffffffffffffffffffffffffffff168373ffffffffffffffffffffffffffffffffffffffff1614156107d3576040517f08c379a00000000000000000000000000000000000000000000000000000000081526004016107ca90613d81565b60405180910390fd5b8073ffffffffffffffffffffffffffffffffffffffff166107f2611c91565b73ffffffffffffffffffffffffffffffffffffffff16148061082157506108208161081b611c91565b61167b565b5b610860576040517f08c379a000000000000000000000000000000000000000000000000000000000815260040161085790613ca1565b60405180910390fd5b61086a8383611c99565b505050565b61088061087a611c91565b82611d52565b6108bf576040517f08c379a00000000000000000000000000000000000000000000000000000000081526004016108b690613da1565b60405180910390fd5b6108ca838383611e30565b505050565b6108ea83838360405180602001604052806000815250610f04565b505050565b6000806002600084815260200190815260200160002060009054906101000a900473ffffffffffffffffffffffffffffffffffffffff169050600073ffffffffffffffffffffffffffffffffffffffff168173ffffffffffffffffffffffffffffffffffffffff161415610998576040517f08c379a000000000000000000000000000000000000000000000000000000000815260040161098f90613ce1565b60405180910390fd5b80915050919050565b60008073ffffffffffffffffffffffffffffffffffffffff168273ffffffffffffffffffffffffffffffffffffffff161415610a12576040517f08c379a0000000000000000000000000000000000000000000000000000000008152600401610a0990613cc1565b60405180910390fd5b600360008373ffffffffffffffffffffffffffffffffffffffff1673ffffffffffffffffffffffffffffffffffffffff168152602001908152602001600020549050919050565b600d6020528060005260406000206000915090505481565b606060018054610a809061410f565b80601f0160208091040260200160405190810160405280929190818152602001828054610aac9061410f565b8015610af95780601f10610ace57610100808354040283529160200191610af9565b820191906000526020600020905b815481529060010190602001808311610adc57829003601f168201915b5050505050905090565b600e602052806000526040600020600091509050806000015490806001018054610b2c9061410f565b80601f0160208091040260200160405190810160405280929190818152602001828054610b589061410f565b8015610ba55780601f10610b7a57610100808354040283529160200191610ba5565b820191906000526020600020905b815481529060010190602001808311610b8857829003601f168201915b505050505090806002018054610bba9061410f565b80601f0160208091040260200160405190810160405280929190818152602001828054610be69061410f565b8015610c335780601f10610c0857610100808354040283529160200191610c33565b820191906000526020600020905b815481529060010190602001808311610c1657829003601f168201915b5050505050908060030154908060040154908060050154905086565b610c57611c91565b73ffffffffffffffffffffffffffffffffffffffff168273ffffffffffffffffffffffffffffffffffffffff161415610cc5576040517f08c379a0000000000000000000000000000000000000000000000000000000008152600401610cbc90613c61565b60405180910390fd5b8060056000610cd2611c91565b73ffffffffffffffffffffffffffffffffffffffff1673ffffffffffffffffffffffffffffffffffffffff16815260200190815260200160002060008473ffffffffffffffffffffffffffffffffffffffff1673ffffffffffffffffffffffffffffffffffffffff16815260200190815260200160002060006101000a81548160ff0219169083151502179055508173ffffffffffffffffffffffffffffffffffffffff16610d7f611c91565b73ffffffffffffffffffffffffffffffffffffffff167f17307eab39ab6107e8899845ad3d59bd9653f200f220920489ca2b5937696c3183604051610dc49190613a28565b60405180910390a35050565b6006806000018054610de19061410f565b80601f0160208091040260200160405190810160405280929190818152602001828054610e0d9061410f565b8015610e5a5780601f10610e2f57610100808354040283529160200191610e5a565b820191906000526020600020905b815481529060010190602001808311610e3d57829003601f168201915b505050505090806001018054610e6f9061410f565b80601f0160208091040260200160405190810160405280929190818152602001828054610e9b9061410f565b8015610ee85780601f10610ebd57610100808354040283529160200191610ee8565b820191906000526020600020905b815481529060010190602001808311610ecb57829003601f168201915b5050505050908060020154908060030154908060040154905085565b610f15610f0f611c91565b83611d52565b610f54576040517f08c379a0000000000000000000000000000000000000000000000000000000008152600401610f4b90613da1565b60405180910390fd5b610f608484848461208c565b50505050565b60606000600e60008481526020019081526020016000206040518060c001604052908160008201548152602001600182018054610fa29061410f565b80601f0160208091040260200160405190810160405280929190818152602001828054610fce9061410f565b801561101b5780601f10610ff05761010080835404028352916020019161101b565b820191906000526020600020905b815481529060010190602001808311610ffe57829003601f168201915b505050505081526020016002820180546110349061410f565b80601f01602080910402602001604051908101604052809291908181526020018280546110609061410f565b80156110ad5780601f10611082576101008083540402835291602001916110ad565b820191906000526020600020905b81548152906001019060200180831161109057829003601f168201915b505050505081526020016003820154815260200160048201548152602001600582015481525050905060006110e582606001516120e8565b905060006110f683608001516120e8565b905060006111078460a001516120e8565b9050600061114d856020015161111c896120e8565b8760400151878787604051602001611139969594939291906138c3565b604051602081830303815290604052612295565b90506000816040516020016111629190613968565b6040516020818303038152906040529050809650505050505050919050565b611189612a8c565b6000600d60003373ffffffffffffffffffffffffffffffffffffffff1673ffffffffffffffffffffffffffffffffffffffff168152602001908152602001600020549050600081111561134857600e60008281526020019081526020016000206040518060c00160405290816000820154815260200160018201805461120e9061410f565b80601f016020809104026020016040519081016040528092919081815260200182805461123a9061410f565b80156112875780601f1061125c57610100808354040283529160200191611287565b820191906000526020600020905b81548152906001019060200180831161126a57829003601f168201915b505050505081526020016002820180546112a09061410f565b80601f01602080910402602001604051908101604052809291908181526020018280546112cc9061410f565b80156113195780601f106112ee57610100808354040283529160200191611319565b820191906000526020600020905b8154815290600101906020018083116112fc57829003601f168201915b505050505081526020016003820154815260200160048201548152602001600582015481525050915050611356565b611350612a8c565b80925050505b90565b6000600d60003373ffffffffffffffffffffffffffffffffffffffff1673ffffffffffffffffffffffffffffffffffffffff1681526020019081526020016000205490506000600e6000838152602001908152602001600020905061146c6040518060600160405280603c815260200161437b603c91398260010180546113df9061410f565b80601f016020809104026020016040519081016040528092919081815260200182805461140b9061410f565b80156114585780601f1061142d57610100808354040283529160200191611458565b820191906000526020600020905b81548152906001019060200180831161143b57829003601f168201915b505050505083600301548460050154612453565b6115446040518060400160405280601b81526020017f426f73732025732068617320257320485020616e642025732041440000000000815250600660000180546114b59061410f565b80601f01602080910402602001604051908101604052809291908181526020018280546114e19061410f565b801561152e5780601f106115035761010080835404028352916020019161152e565b820191906000526020600020905b81548152906001019060200180831161151157829003601f168201915b5050505050600660020154600660040154612453565b600081600301541161158b576040517f08c379a000000000000000000000000000000000000000000000000000000000815260040161158290613d01565b60405180910390fd5b6000600660020154116115d3576040517f08c379a00000000000000000000000000000000000000000000000000000000081526004016115ca90613c01565b60405180910390fd5b806005015460066002015410156115f4576000600660020181905550611613565b80600501546006600201546116099190614025565b6006600201819055505b600660040154816003015410156116335760008160030181905550611651565b60066004015481600301546116489190614025565b81600301819055505b6116776040518060600160405280602881526020016143256028913982600301546124f5565b5050565b6000600560008473ffffffffffffffffffffffffffffffffffffffff1673ffffffffffffffffffffffffffffffffffffffff16815260200190815260200160002060008373ffffffffffffffffffffffffffffffffffffffff1673ffffffffffffffffffffffffffffffffffffffff16815260200190815260200160002060009054906101000a900460ff16905092915050565b600061171b600b612591565b9050611727338261259f565b6040518060c00160405280838152602001600c8481548110611772577f4e487b7100000000000000000000000000000000000000000000000000000000600052603260045260246000fd5b9060005260206000209060060201600101805461178e9061410f565b80601f01602080910402602001604051908101604052809291908181526020018280546117ba9061410f565b80156118075780601f106117dc57610100808354040283529160200191611807565b820191906000526020600020905b8154815290600101906020018083116117ea57829003601f168201915b50505050508152602001600c848154811061184b577f4e487b7100000000000000000000000000000000000000000000000000000000600052603260045260246000fd5b906000526020600020906006020160020180546118679061410f565b80601f01602080910402602001604051908101604052809291908181526020018280546118939061410f565b80156118e05780601f106118b5576101008083540402835291602001916118e0565b820191906000526020600020905b8154815290600101906020018083116118c357829003601f168201915b50505050508152602001600c8481548110611924577f4e487b7100000000000000000000000000000000000000000000000000000000600052603260045260246000fd5b9060005260206000209060060201600301548152602001600c8481548110611975577f4e487b7100000000000000000000000000000000000000000000000000000000600052603260045260246000fd5b9060005260206000209060060201600301548152602001600c84815481106119c6577f4e487b7100000000000000000000000000000000000000000000000000000000600052603260045260246000fd5b906000526020600020906006020160050154815250600e6000838152602001908152602001600020600082015181600001556020820151816001019080519060200190611a14929190612ac2565b506040820151816002019080519060200190611a31929190612ac2565b50606082015181600301556080820151816004015560a08201518160050155905050611a766040518060600160405280602e815260200161434d602e913982846125bd565b80600d60003373ffffffffffffffffffffffffffffffffffffffff1673ffffffffffffffffffffffffffffffffffffffff16815260200190815260200160002081905550611ac4600b611ba5565b7f4bc303fd457a97b4691b9af582ce71868a3d258638c8d4f8c60988a0f0bfb8cd338284604051611af7939291906139f1565b60405180910390a15050565b611b9f84848484604051602401611b1d9493929190613a65565b6040516020818303038152906040527f8d142cdd000000000000000000000000000000000000000000000000000000007bffffffffffffffffffffffffffffffffffffffffffffffffffffffff19166020820180517bffffffffffffffffffffffffffffffffffffffffffffffffffffffff838183161783525050505061265c565b50505050565b6001816000016000828254019250508190555050565b60007f01ffc9a7000000000000000000000000000000000000000000000000000000007bffffffffffffffffffffffffffffffffffffffffffffffffffffffff1916827bffffffffffffffffffffffffffffffffffffffffffffffffffffffff1916149050919050565b60008073ffffffffffffffffffffffffffffffffffffffff166002600084815260200190815260200160002060009054906101000a900473ffffffffffffffffffffffffffffffffffffffff1673ffffffffffffffffffffffffffffffffffffffff1614159050919050565b600033905090565b816004600083815260200190815260200160002060006101000a81548173ffffffffffffffffffffffffffffffffffffffff021916908373ffffffffffffffffffffffffffffffffffffffff160217905550808273ffffffffffffffffffffffffffffffffffffffff16611d0c836108ef565b73ffffffffffffffffffffffffffffffffffffffff167f8c5be1e5ebec7d5bd14f71427d1e84f3dd0314c0f7b2291e5b200ac8c7c3b92560405160405180910390a45050565b6000611d5d82611c25565b611d9c576040517f08c379a0000000000000000000000000000000000000000000000000000000008152600401611d9390613c81565b60405180910390fd5b6000611da7836108ef565b90508073ffffffffffffffffffffffffffffffffffffffff168473ffffffffffffffffffffffffffffffffffffffff161480611e1657508373ffffffffffffffffffffffffffffffffffffffff16611dfe846106d2565b73ffffffffffffffffffffffffffffffffffffffff16145b80611e275750611e26818561167b565b5b91505092915050565b8273ffffffffffffffffffffffffffffffffffffffff16611e50826108ef565b73ffffffffffffffffffffffffffffffffffffffff1614611ea6576040517f08c379a0000000000000000000000000000000000000000000000000000000008152600401611e9d90613d61565b60405180910390fd5b600073ffffffffffffffffffffffffffffffffffffffff168273ffffffffffffffffffffffffffffffffffffffff161415611f16576040517f08c379a0000000000000000000000000000000000000000000000000000000008152600401611f0d90613c41565b60405180910390fd5b611f21838383612685565b611f2c600082611c99565b6001600360008573ffffffffffffffffffffffffffffffffffffffff1673ffffffffffffffffffffffffffffffffffffffff1681526020019081526020016000206000828254611f7c9190614025565b925050819055506001600360008473ffffffffffffffffffffffffffffffffffffffff1673ffffffffffffffffffffffffffffffffffffffff1681526020019081526020016000206000828254611fd39190613f44565b92505081905550816002600083815260200190815260200160002060006101000a81548173ffffffffffffffffffffffffffffffffffffffff021916908373ffffffffffffffffffffffffffffffffffffffff160217905550808273ffffffffffffffffffffffffffffffffffffffff168473ffffffffffffffffffffffffffffffffffffffff167fddf252ad1be2c89b69c2b068fc378daa952ba7f163c4a11628f55a4df523b3ef60405160405180910390a4505050565b612097848484611e30565b6120a38484848461268a565b6120e2576040517f08c379a00000000000000000000000000000000000000000000000000000000081526004016120d990613be1565b60405180910390fd5b50505050565b60606000821415612130576040518060400160405280600181526020017f30000000000000000000000000000000000000000000000000000000000000008152509050612290565b600082905060005b6000821461216257808061214b90614141565b915050600a8261215b9190613f9a565b9150612138565b60008167ffffffffffffffff8111156121a4577f4e487b7100000000000000000000000000000000000000000000000000000000600052604160045260246000fd5b6040519080825280601f01601f1916602001820160405280156121d65781602001600182028036833780820191505090505b5090505b60008514612289576001826121ef9190614025565b9150600a856121fe919061418a565b603061220a9190613f44565b60f81b818381518110612246577f4e487b7100000000000000000000000000000000000000000000000000000000600052603260045260246000fd5b60200101907effffffffffffffffffffffffffffffffffffffffffffffffffffffffffffff1916908160001a905350600a856122829190613f9a565b94506121da565b8093505050505b919050565b606060008251905060008114156122be576040518060200160405280600081525091505061244e565b600060036002836122cf9190613f44565b6122d99190613f9a565b60046122e59190613fcb565b905060006020826122f69190613f44565b67ffffffffffffffff811115612335577f4e487b7100000000000000000000000000000000000000000000000000000000600052604160045260246000fd5b6040519080825280601f01601f1916602001820160405280156123675781602001600182028036833780820191505090505b50905060006040518060600160405280604081526020016142e5604091399050600181016020830160005b8681101561240b5760038101905062ffffff818a015116603f8160121c168401518060081b905060ff603f83600c1c1686015116810190508060081b905060ff603f8360061c1686015116810190508060081b905060ff603f831686015116810190508060e01b90508084526004840193505050612392565b506003860660018114612425576002811461243557612440565b613d3d60f01b6002830352612440565b603d60f81b60018303525b508484525050819450505050505b919050565b6124ef8484848460405160240161246d9493929190613abf565b6040516020818303038152906040527fd5cf17d0000000000000000000000000000000000000000000000000000000007bffffffffffffffffffffffffffffffffffffffffffffffffffffffff19166020820180517bffffffffffffffffffffffffffffffffffffffffffffffffffffffff838183161783525050505061265c565b50505050565b61258d828260405160240161250b929190613b73565b6040516020818303038152906040527f9710a9d0000000000000000000000000000000000000000000000000000000007bffffffffffffffffffffffffffffffffffffffffffffffffffffffff19166020820180517bffffffffffffffffffffffffffffffffffffffffffffffffffffffff838183161783525050505061265c565b5050565b600081600001549050919050565b6125b9828260405180602001604052806000815250612821565b5050565b6126578383836040516024016125d593929190613ba3565b6040516020818303038152906040527f969cdd03000000000000000000000000000000000000000000000000000000007bffffffffffffffffffffffffffffffffffffffffffffffffffffffff19166020820180517bffffffffffffffffffffffffffffffffffffffffffffffffffffffff838183161783525050505061265c565b505050565b60008151905060006a636f6e736f6c652e6c6f679050602083016000808483855afa5050505050565b505050565b60006126ab8473ffffffffffffffffffffffffffffffffffffffff1661287c565b15612814578373ffffffffffffffffffffffffffffffffffffffff1663150b7a026126d4611c91565b8786866040518563ffffffff1660e01b81526004016126f694939291906139a5565b602060405180830381600087803b15801561271057600080fd5b505af192505050801561274157506040513d601f19601f8201168201806040525081019061273e9190612e06565b60015b6127c4573d8060008114612771576040519150601f19603f3d011682016040523d82523d6000602084013e612776565b606091505b506000815114156127bc576040517f08c379a00000000000000000000000000000000000000000000000000000000081526004016127b390613be1565b60405180910390fd5b805181602001fd5b63150b7a0260e01b7bffffffffffffffffffffffffffffffffffffffffffffffffffffffff1916817bffffffffffffffffffffffffffffffffffffffffffffffffffffffff191614915050612819565b600190505b949350505050565b61282b838361288f565b612838600084848461268a565b612877576040517f08c379a000000000000000000000000000000000000000000000000000000000815260040161286e90613be1565b60405180910390fd5b505050565b600080823b905060008111915050919050565b600073ffffffffffffffffffffffffffffffffffffffff168273ffffffffffffffffffffffffffffffffffffffff1614156128ff576040517f08c379a00000000000000000000000000000000000000000000000000000000081526004016128f690613d21565b60405180910390fd5b61290881611c25565b15612948576040517f08c379a000000000000000000000000000000000000000000000000000000000815260040161293f90613c21565b60405180910390fd5b61295460008383612685565b6001600360008473ffffffffffffffffffffffffffffffffffffffff1673ffffffffffffffffffffffffffffffffffffffff16815260200190815260200160002060008282546129a49190613f44565b92505081905550816002600083815260200190815260200160002060006101000a81548173ffffffffffffffffffffffffffffffffffffffff021916908373ffffffffffffffffffffffffffffffffffffffff160217905550808273ffffffffffffffffffffffffffffffffffffffff16600073ffffffffffffffffffffffffffffffffffffffff167fddf252ad1be2c89b69c2b068fc378daa952ba7f163c4a11628f55a4df523b3ef60405160405180910390a45050565b6040518060a0016040528060608152602001606081526020016000815260200160008152602001600081525090565b6040518060c001604052806000815260200160608152602001606081526020016000815260200160008152602001600081525090565b828054612ace9061410f565b90600052602060002090601f016020900481019282612af05760008555612b37565b82601f10612b0957805160ff1916838001178555612b37565b82800160010185558215612b37579182015b82811115612b36578251825591602001919060010190612b1b565b5b509050612b449190612b48565b5090565b5b80821115612b61576000816000905550600101612b49565b5090565b6000612b78612b7384613ec0565b613e8f565b905082815260208101848484011115612b9057600080fd5b612b9b8482856140cd565b509392505050565b600081359050612bb281614288565b92915050565b600081359050612bc78161429f565b92915050565b600081359050612bdc816142b6565b92915050565b600081519050612bf1816142b6565b92915050565b600082601f830112612c0857600080fd5b8135612c18848260208601612b65565b91505092915050565b600081359050612c30816142cd565b92915050565b600060208284031215612c4857600080fd5b6000612c5684828501612ba3565b91505092915050565b60008060408385031215612c7257600080fd5b6000612c8085828601612ba3565b9250506020612c9185828601612ba3565b9150509250929050565b600080600060608486031215612cb057600080fd5b6000612cbe86828701612ba3565b9350506020612ccf86828701612ba3565b9250506040612ce086828701612c21565b9150509250925092565b60008060008060808587031215612d0057600080fd5b6000612d0e87828801612ba3565b9450506020612d1f87828801612ba3565b9350506040612d3087828801612c21565b925050606085013567ffffffffffffffff811115612d4d57600080fd5b612d5987828801612bf7565b91505092959194509250565b60008060408385031215612d7857600080fd5b6000612d8685828601612ba3565b9250506020612d9785828601612bb8565b9150509250929050565b60008060408385031215612db457600080fd5b6000612dc285828601612ba3565b9250506020612dd385828601612c21565b9150509250929050565b600060208284031215612def57600080fd5b6000612dfd84828501612bcd565b91505092915050565b600060208284031215612e1857600080fd5b6000612e2684828501612be2565b91505092915050565b600060208284031215612e4157600080fd5b6000612e4f84828501612c21565b91505092915050565b612e6181614059565b82525050565b612e708161406b565b82525050565b6000612e8182613ef0565b612e8b8185613f06565b9350612e9b8185602086016140dc565b612ea481614277565b840191505092915050565b6000612eba82613efb565b612ec48185613f17565b9350612ed48185602086016140dc565b612edd81614277565b840191505092915050565b6000612ef382613efb565b612efd8185613f28565b9350612f0d8185602086016140dc565b612f1681614277565b840191505092915050565b6000612f2c82613efb565b612f368185613f39565b9350612f468185602086016140dc565b80840191505092915050565b6000612f5f600b83613f39565b91507f202d2d204e465420233a200000000000000000000000000000000000000000006000830152600b82019050919050565b6000612f9f603283613f28565b91507f4552433732313a207472616e7366657220746f206e6f6e20455243373231526560008301527f63656976657220696d706c656d656e74657200000000000000000000000000006020830152604082019050919050565b6000613005602883613f28565b91507f4572726f723a20626f7373206d757374206861766520485020746f206174746160008301527f636b20626f73732e0000000000000000000000000000000000000000000000006020830152604082019050919050565b600061306b601c83613f28565b91507f4552433732313a20746f6b656e20616c7265616479206d696e746564000000006000830152602082019050919050565b60006130ab600e83613f39565b91507f2c20226d61785f76616c7565223a0000000000000000000000000000000000006000830152600e82019050919050565b60006130eb602483613f28565b91507f4552433732313a207472616e7366657220746f20746865207a65726f2061646460008301527f72657373000000000000000000000000000000000000000000000000000000006020830152604082019050919050565b6000613151601983613f28565b91507f4552433732313a20617070726f766520746f2063616c6c6572000000000000006000830152602082019050919050565b6000613191602c83613f28565b91507f4552433732313a206f70657261746f7220717565727920666f72206e6f6e657860008301527f697374656e7420746f6b656e00000000000000000000000000000000000000006020830152604082019050919050565b60006131f7603883613f28565b91507f4552433732313a20617070726f76652063616c6c6572206973206e6f74206f7760008301527f6e6572206e6f7220617070726f76656420666f7220616c6c00000000000000006020830152604082019050919050565b600061325d602a83613f28565b91507f4552433732313a2062616c616e636520717565727920666f7220746865207a6560008301527f726f2061646472657373000000000000000000000000000000000000000000006020830152604082019050919050565b60006132c3602983613f28565b91507f4552433732313a206f776e657220717565727920666f72206e6f6e657869737460008301527f656e7420746f6b656e00000000000000000000000000000000000000000000006020830152604082019050919050565b6000613329606283613f39565b91507f222c20226465736372697074696f6e223a20225468697320697320616e204e4660008301527f542074686174206c6574732070656f706c6520706c617920696e20746865206760208301527f616d65204d657461766572736520536c6179657221222c2022696d616765223a60408301527f20220000000000000000000000000000000000000000000000000000000000006060830152606282019050919050565b60006133db602d83613f28565b91507f4572726f723a20636861726163746572206d757374206861766520485020746f60008301527f2061747461636b20626f73732e000000000000000000000000000000000000006020830152604082019050919050565b6000613441600483613f39565b91507f7d205d7d000000000000000000000000000000000000000000000000000000006000830152600482019050919050565b6000613481602083613f28565b91507f4552433732313a206d696e7420746f20746865207a65726f20616464726573736000830152602082019050919050565b60006134c1602c83613f28565b91507f4552433732313a20617070726f76656420717565727920666f72206e6f6e657860008301527f697374656e7420746f6b656e00000000000000000000000000000000000000006020830152604082019050919050565b6000613527602983613f28565b91507f4552433732313a207472616e73666572206f6620746f6b656e2074686174206960008301527f73206e6f74206f776e00000000000000000000000000000000000000000000006020830152604082019050919050565b600061358d600a83613f39565b91507f7b226e616d65223a2022000000000000000000000000000000000000000000006000830152600a82019050919050565b60006135cd602183613f28565b91507f4552433732313a20617070726f76616c20746f2063757272656e74206f776e6560008301527f72000000000000000000000000000000000000000000000000000000000000006020830152604082019050919050565b6000613633601d83613f39565b91507f646174613a6170706c69636174696f6e2f6a736f6e3b6261736536342c0000006000830152601d82019050919050565b6000613673603183613f28565b91507f4552433732313a207472616e736665722063616c6c6572206973206e6f74206f60008301527f776e6572206e6f7220617070726f7665640000000000000000000000000000006020830152604082019050919050565b60006136d9603d83613f39565b91507f222c202261747472696275746573223a205b207b202274726169745f7479706560008301527f223a20224865616c746820506f696e7473222c202276616c7565223a200000006020830152603d82019050919050565b600061373f602d83613f39565b91507f7d2c207b202274726169745f74797065223a202241747461636b2044616d616760008301527f65222c202276616c7565223a20000000000000000000000000000000000000006020830152602d82019050919050565b600060a08301600083015184820360008601526137b58282612eaf565b915050602083015184820360208601526137cf8282612eaf565b91505060408301516137e460408601826138a5565b5060608301516137f760608601826138a5565b50608083015161380a60808601826138a5565b508091505092915050565b600060c08301600083015161382d60008601826138a5565b50602083015184820360208601526138458282612eaf565b9150506040830151848203604086015261385f8282612eaf565b915050606083015161387460608601826138a5565b50608083015161388760808601826138a5565b5060a083015161389a60a08601826138a5565b508091505092915050565b6138ae816140c3565b82525050565b6138bd816140c3565b82525050565b60006138ce82613580565b91506138da8289612f21565b91506138e582612f52565b91506138f18288612f21565b91506138fc8261331c565b91506139088287612f21565b9150613913826136cc565b915061391f8286612f21565b915061392a8261309e565b91506139368285612f21565b915061394182613732565b915061394d8284612f21565b915061395882613434565b9150819050979650505050505050565b600061397382613626565b915061397f8284612f21565b915081905092915050565b600060208201905061399f6000830184612e58565b92915050565b60006080820190506139ba6000830187612e58565b6139c76020830186612e58565b6139d460408301856138b4565b81810360608301526139e68184612e76565b905095945050505050565b6000606082019050613a066000830186612e58565b613a1360208301856138b4565b613a2060408301846138b4565b949350505050565b6000602082019050613a3d6000830184612e67565b92915050565b60006020820190508181036000830152613a5d8184612ee8565b905092915050565b60006080820190508181036000830152613a7f8187612ee8565b90508181036020830152613a938186612ee8565b9050613aa260408301856138b4565b8181036060830152613ab48184612ee8565b905095945050505050565b60006080820190508181036000830152613ad98187612ee8565b90508181036020830152613aed8186612ee8565b9050613afc60408301856138b4565b613b0960608301846138b4565b95945050505050565b600060a0820190508181036000830152613b2c8188612ee8565b90508181036020830152613b408187612ee8565b9050613b4f60408301866138b4565b613b5c60608301856138b4565b613b6960808301846138b4565b9695505050505050565b60006040820190508181036000830152613b8d8185612ee8565b9050613b9c60208301846138b4565b9392505050565b60006060820190508181036000830152613bbd8186612ee8565b9050613bcc60208301856138b4565b613bd960408301846138b4565b949350505050565b60006020820190508181036000830152613bfa81612f92565b9050919050565b60006020820190508181036000830152613c1a81612ff8565b9050919050565b60006020820190508181036000830152613c3a8161305e565b9050919050565b60006020820190508181036000830152613c5a816130de565b9050919050565b60006020820190508181036000830152613c7a81613144565b9050919050565b60006020820190508181036000830152613c9a81613184565b9050919050565b60006020820190508181036000830152613cba816131ea565b9050919050565b60006020820190508181036000830152613cda81613250565b9050919050565b60006020820190508181036000830152613cfa816132b6565b9050919050565b60006020820190508181036000830152613d1a816133ce565b9050919050565b60006020820190508181036000830152613d3a81613474565b9050919050565b60006020820190508181036000830152613d5a816134b4565b9050919050565b60006020820190508181036000830152613d7a8161351a565b9050919050565b60006020820190508181036000830152613d9a816135c0565b9050919050565b60006020820190508181036000830152613dba81613666565b9050919050565b60006020820190508181036000830152613ddb8184613798565b905092915050565b60006020820190508181036000830152613dfd8184613815565b905092915050565b6000602082019050613e1a60008301846138b4565b92915050565b600060c082019050613e3560008301896138b4565b8181036020830152613e478188612ee8565b90508181036040830152613e5b8187612ee8565b9050613e6a60608301866138b4565b613e7760808301856138b4565b613e8460a08301846138b4565b979650505050505050565b6000604051905081810181811067ffffffffffffffff82111715613eb657613eb5614248565b5b8060405250919050565b600067ffffffffffffffff821115613edb57613eda614248565b5b601f19601f8301169050602081019050919050565b600081519050919050565b600081519050919050565b600082825260208201905092915050565b600082825260208201905092915050565b600082825260208201905092915050565b600081905092915050565b6000613f4f826140c3565b9150613f5a836140c3565b9250827fffffffffffffffffffffffffffffffffffffffffffffffffffffffffffffffff03821115613f8f57613f8e6141bb565b5b828201905092915050565b6000613fa5826140c3565b9150613fb0836140c3565b925082613fc057613fbf6141ea565b5b828204905092915050565b6000613fd6826140c3565b9150613fe1836140c3565b9250817fffffffffffffffffffffffffffffffffffffffffffffffffffffffffffffffff048311821515161561401a576140196141bb565b5b828202905092915050565b6000614030826140c3565b915061403b836140c3565b92508282101561404e5761404d6141bb565b5b828203905092915050565b6000614064826140a3565b9050919050565b60008115159050919050565b60007fffffffff0000000000000000000000000000000000000000000000000000000082169050919050565b600073ffffffffffffffffffffffffffffffffffffffff82169050919050565b6000819050919050565b82818337600083830152505050565b60005b838110156140fa5780820151818401526020810190506140df565b83811115614109576000848401525b50505050565b6000600282049050600182168061412757607f821691505b6020821081141561413b5761413a614219565b5b50919050565b600061414c826140c3565b91507fffffffffffffffffffffffffffffffffffffffffffffffffffffffffffffffff82141561417f5761417e6141bb565b5b600182019050919050565b6000614195826140c3565b91506141a0836140c3565b9250826141b0576141af6141ea565b5b828206905092915050565b7f4e487b7100000000000000000000000000000000000000000000000000000000600052601160045260246000fd5b7f4e487b7100000000000000000000000000000000000000000000000000000000600052601260045260246000fd5b7f4e487b7100000000000000000000000000000000000000000000000000000000600052602260045260246000fd5b7f4e487b7100000000000000000000000000000000000000000000000000000000600052604160045260246000fd5b6000601f19601f8301169050919050565b61429181614059565b811461429c57600080fd5b50565b6142a88161406b565b81146142b357600080fd5b50565b6142bf81614077565b81146142ca57600080fd5b50565b6142d6816140c3565b81146142e157600080fd5b5056fe4142434445464748494a4b4c4d4e4f505152535455565758595a6162636465666768696a6b6c6d6e6f707172737475767778797a303132333435363738392b2f426f73732061747461636b656420706c617965722e204e657720706c617965722068703a2025730a4d696e746564204e465420772f20746f6b656e496420257320616e6420636861726163746572496e6465782025730a506c6179657220772f206368617261637465722025732061626f757420746f2061747461636b2e2048617320257320485020616e64202573204144a26469706673582212209295f9679a490a766ccda8afefbe87a2cc7005eb6913c3de5239a20903ead47c64736f6c63430008000033446f6e6520696e697469616c697a696e6720257320772f2048502025732c20696d67202573446f6e6520696e697469616c697a696e6720626f737320257320772f2048502025732c20696d67202573",
    "linkReferences": {},
    "deployedLinkReferences": {}
}